{
  "_format": "hh-sol-artifact-1",
  "contractName": "NFT",
  "sourceName": "contracts/NFT.sol",
  "abi": [
    {
      "inputs": [
        {
          "internalType": "string",
          "name": "name",
          "type": "string"
        },
        {
          "internalType": "string",
          "name": "symbol",
          "type": "string"
        },
        {
          "internalType": "string",
          "name": "baseTokenURI",
          "type": "string"
        }
      ],
      "stateMutability": "nonpayable",
      "type": "constructor"
    },
    {
      "anonymous": false,
      "inputs": [
        {
          "indexed": true,
          "internalType": "address",
          "name": "owner",
          "type": "address"
        },
        {
          "indexed": true,
          "internalType": "address",
          "name": "approved",
          "type": "address"
        },
        {
          "indexed": true,
          "internalType": "uint256",
          "name": "tokenId",
          "type": "uint256"
        }
      ],
      "name": "Approval",
      "type": "event"
    },
    {
      "anonymous": false,
      "inputs": [
        {
          "indexed": true,
          "internalType": "address",
          "name": "owner",
          "type": "address"
        },
        {
          "indexed": true,
          "internalType": "address",
          "name": "operator",
          "type": "address"
        },
        {
          "indexed": false,
          "internalType": "bool",
          "name": "approved",
          "type": "bool"
        }
      ],
      "name": "ApprovalForAll",
      "type": "event"
    },
    {
      "anonymous": false,
      "inputs": [
        {
          "indexed": true,
          "internalType": "bytes32",
          "name": "role",
          "type": "bytes32"
        },
        {
          "indexed": true,
          "internalType": "bytes32",
          "name": "previousAdminRole",
          "type": "bytes32"
        },
        {
          "indexed": true,
          "internalType": "bytes32",
          "name": "newAdminRole",
          "type": "bytes32"
        }
      ],
      "name": "RoleAdminChanged",
      "type": "event"
    },
    {
      "anonymous": false,
      "inputs": [
        {
          "indexed": true,
          "internalType": "bytes32",
          "name": "role",
          "type": "bytes32"
        },
        {
          "indexed": true,
          "internalType": "address",
          "name": "account",
          "type": "address"
        },
        {
          "indexed": true,
          "internalType": "address",
          "name": "sender",
          "type": "address"
        }
      ],
      "name": "RoleGranted",
      "type": "event"
    },
    {
      "anonymous": false,
      "inputs": [
        {
          "indexed": true,
          "internalType": "bytes32",
          "name": "role",
          "type": "bytes32"
        },
        {
          "indexed": true,
          "internalType": "address",
          "name": "account",
          "type": "address"
        },
        {
          "indexed": true,
          "internalType": "address",
          "name": "sender",
          "type": "address"
        }
      ],
      "name": "RoleRevoked",
      "type": "event"
    },
    {
      "anonymous": false,
      "inputs": [
        {
          "indexed": true,
          "internalType": "address",
          "name": "from",
          "type": "address"
        },
        {
          "indexed": true,
          "internalType": "address",
          "name": "to",
          "type": "address"
        },
        {
          "indexed": true,
          "internalType": "uint256",
          "name": "tokenId",
          "type": "uint256"
        }
      ],
      "name": "Transfer",
      "type": "event"
    },
    {
      "inputs": [],
      "name": "DEFAULT_ADMIN_ROLE",
      "outputs": [
        {
          "internalType": "bytes32",
          "name": "",
          "type": "bytes32"
        }
      ],
      "stateMutability": "view",
      "type": "function"
    },
    {
      "inputs": [],
      "name": "_tokenIdTracker",
      "outputs": [
        {
          "internalType": "uint256",
          "name": "_value",
          "type": "uint256"
        }
      ],
      "stateMutability": "view",
      "type": "function"
    },
    {
      "inputs": [
        {
          "internalType": "address",
          "name": "to",
          "type": "address"
        },
        {
          "internalType": "uint256",
          "name": "tokenId",
          "type": "uint256"
        }
      ],
      "name": "approve",
      "outputs": [],
      "stateMutability": "nonpayable",
      "type": "function"
    },
    {
      "inputs": [
        {
          "internalType": "address",
          "name": "owner",
          "type": "address"
        }
      ],
      "name": "balanceOf",
      "outputs": [
        {
          "internalType": "uint256",
          "name": "",
          "type": "uint256"
        }
      ],
      "stateMutability": "view",
      "type": "function"
    },
    {
      "inputs": [
        {
          "internalType": "uint256",
          "name": "tokenId",
          "type": "uint256"
        }
      ],
      "name": "claimReward",
      "outputs": [],
      "stateMutability": "nonpayable",
      "type": "function"
    },
    {
      "inputs": [],
      "name": "claimRewards",
      "outputs": [],
      "stateMutability": "nonpayable",
      "type": "function"
    },
    {
      "inputs": [],
      "name": "currentRate",
      "outputs": [
        {
          "internalType": "uint256",
          "name": "",
          "type": "uint256"
        }
      ],
      "stateMutability": "view",
      "type": "function"
    },
    {
      "inputs": [
        {
          "internalType": "uint256",
          "name": "tokenId",
          "type": "uint256"
        }
      ],
      "name": "getApproved",
      "outputs": [
        {
          "internalType": "address",
          "name": "",
          "type": "address"
        }
      ],
      "stateMutability": "view",
      "type": "function"
    },
    {
      "inputs": [
        {
          "internalType": "uint256",
          "name": "tokenId",
          "type": "uint256"
        }
      ],
      "name": "getReflectionBalance",
      "outputs": [
        {
          "internalType": "uint256",
          "name": "",
          "type": "uint256"
        }
      ],
      "stateMutability": "view",
      "type": "function"
    },
    {
      "inputs": [],
      "name": "getReflectionBalances",
      "outputs": [
        {
          "internalType": "uint256",
          "name": "",
          "type": "uint256"
        }
      ],
      "stateMutability": "view",
      "type": "function"
    },
    {
      "inputs": [
        {
          "internalType": "bytes32",
          "name": "role",
          "type": "bytes32"
        }
      ],
      "name": "getRoleAdmin",
      "outputs": [
        {
          "internalType": "bytes32",
          "name": "",
          "type": "bytes32"
        }
      ],
      "stateMutability": "view",
      "type": "function"
    },
    {
      "inputs": [
        {
          "internalType": "bytes32",
          "name": "role",
          "type": "bytes32"
        },
        {
          "internalType": "uint256",
          "name": "index",
          "type": "uint256"
        }
      ],
      "name": "getRoleMember",
      "outputs": [
        {
          "internalType": "address",
          "name": "",
          "type": "address"
        }
      ],
      "stateMutability": "view",
      "type": "function"
    },
    {
      "inputs": [
        {
          "internalType": "bytes32",
          "name": "role",
          "type": "bytes32"
        }
      ],
      "name": "getRoleMemberCount",
      "outputs": [
        {
          "internalType": "uint256",
          "name": "",
          "type": "uint256"
        }
      ],
      "stateMutability": "view",
      "type": "function"
    },
    {
      "inputs": [
        {
          "internalType": "bytes32",
          "name": "role",
          "type": "bytes32"
        },
        {
          "internalType": "address",
          "name": "account",
          "type": "address"
        }
      ],
      "name": "grantRole",
      "outputs": [],
      "stateMutability": "nonpayable",
      "type": "function"
    },
    {
      "inputs": [
        {
          "internalType": "bytes32",
          "name": "role",
          "type": "bytes32"
        },
        {
          "internalType": "address",
          "name": "account",
          "type": "address"
        }
      ],
      "name": "hasRole",
      "outputs": [
        {
          "internalType": "bool",
          "name": "",
          "type": "bool"
        }
      ],
      "stateMutability": "view",
      "type": "function"
    },
    {
      "inputs": [
        {
          "internalType": "address",
          "name": "owner",
          "type": "address"
        },
        {
          "internalType": "address",
          "name": "operator",
          "type": "address"
        }
      ],
      "name": "isApprovedForAll",
      "outputs": [
        {
          "internalType": "bool",
          "name": "",
          "type": "bool"
        }
      ],
      "stateMutability": "view",
      "type": "function"
    },
    {
      "inputs": [
        {
          "internalType": "uint256",
          "name": "",
          "type": "uint256"
        }
      ],
      "name": "lastDividendAt",
      "outputs": [
        {
          "internalType": "uint256",
          "name": "",
          "type": "uint256"
        }
      ],
      "stateMutability": "view",
      "type": "function"
    },
    {
      "inputs": [
        {
          "internalType": "uint256",
          "name": "amount",
          "type": "uint256"
        }
      ],
      "name": "mint",
      "outputs": [],
      "stateMutability": "payable",
      "type": "function"
    },
    {
      "inputs": [
        {
          "internalType": "uint256",
          "name": "",
          "type": "uint256"
        }
      ],
      "name": "minter",
      "outputs": [
        {
          "internalType": "address",
          "name": "",
          "type": "address"
        }
      ],
      "stateMutability": "view",
      "type": "function"
    },
    {
      "inputs": [],
      "name": "name",
      "outputs": [
        {
          "internalType": "string",
          "name": "",
          "type": "string"
        }
      ],
      "stateMutability": "view",
      "type": "function"
    },
    {
      "inputs": [
        {
          "internalType": "uint256",
          "name": "tokenId",
          "type": "uint256"
        }
      ],
      "name": "ownerOf",
      "outputs": [
        {
          "internalType": "address",
          "name": "",
          "type": "address"
        }
      ],
      "stateMutability": "view",
      "type": "function"
    },
    {
      "inputs": [],
      "name": "price",
      "outputs": [
        {
          "internalType": "uint256",
          "name": "",
          "type": "uint256"
        }
      ],
      "stateMutability": "view",
      "type": "function"
    },
    {
      "inputs": [],
      "name": "reflectToOwners",
      "outputs": [],
      "stateMutability": "payable",
      "type": "function"
    },
    {
      "inputs": [],
      "name": "reflectionBalance",
      "outputs": [
        {
          "internalType": "uint256",
          "name": "",
          "type": "uint256"
        }
      ],
      "stateMutability": "view",
      "type": "function"
    },
    {
      "inputs": [
        {
          "internalType": "bytes32",
          "name": "role",
          "type": "bytes32"
        },
        {
          "internalType": "address",
          "name": "account",
          "type": "address"
        }
      ],
      "name": "renounceRole",
      "outputs": [],
      "stateMutability": "nonpayable",
      "type": "function"
    },
    {
      "inputs": [
        {
          "internalType": "bytes32",
          "name": "role",
          "type": "bytes32"
        },
        {
          "internalType": "address",
          "name": "account",
          "type": "address"
        }
      ],
      "name": "revokeRole",
      "outputs": [],
      "stateMutability": "nonpayable",
      "type": "function"
    },
    {
      "inputs": [
        {
          "internalType": "address",
          "name": "from",
          "type": "address"
        },
        {
          "internalType": "address",
          "name": "to",
          "type": "address"
        },
        {
          "internalType": "uint256",
          "name": "tokenId",
          "type": "uint256"
        }
      ],
      "name": "safeTransferFrom",
      "outputs": [],
      "stateMutability": "nonpayable",
      "type": "function"
    },
    {
      "inputs": [
        {
          "internalType": "address",
          "name": "from",
          "type": "address"
        },
        {
          "internalType": "address",
          "name": "to",
          "type": "address"
        },
        {
          "internalType": "uint256",
          "name": "tokenId",
          "type": "uint256"
        },
        {
          "internalType": "bytes",
          "name": "_data",
          "type": "bytes"
        }
      ],
      "name": "safeTransferFrom",
      "outputs": [],
      "stateMutability": "nonpayable",
      "type": "function"
    },
    {
      "inputs": [
        {
          "internalType": "address",
          "name": "operator",
          "type": "address"
        },
        {
          "internalType": "bool",
          "name": "approved",
          "type": "bool"
        }
      ],
      "name": "setApprovalForAll",
      "outputs": [],
      "stateMutability": "nonpayable",
      "type": "function"
    },
    {
      "inputs": [
        {
          "internalType": "string",
          "name": "baseURI",
          "type": "string"
        }
      ],
      "name": "setBaseURI",
      "outputs": [],
      "stateMutability": "nonpayable",
      "type": "function"
    },
    {
      "inputs": [
        {
          "internalType": "uint256",
          "name": "mintPrice",
          "type": "uint256"
        }
      ],
      "name": "setPrice",
      "outputs": [],
      "stateMutability": "nonpayable",
      "type": "function"
    },
    {
      "inputs": [
        {
          "internalType": "uint256",
          "name": "tokenId",
          "type": "uint256"
        },
        {
          "internalType": "string",
          "name": "_tokenURI",
          "type": "string"
        }
      ],
      "name": "setTokenURI",
      "outputs": [],
      "stateMutability": "nonpayable",
      "type": "function"
    },
    {
      "inputs": [
        {
          "internalType": "bytes4",
          "name": "interfaceId",
          "type": "bytes4"
        }
      ],
      "name": "supportsInterface",
      "outputs": [
        {
          "internalType": "bool",
          "name": "",
          "type": "bool"
        }
      ],
      "stateMutability": "view",
      "type": "function"
    },
    {
      "inputs": [],
      "name": "symbol",
      "outputs": [
        {
          "internalType": "string",
          "name": "",
          "type": "string"
        }
      ],
      "stateMutability": "view",
      "type": "function"
    },
    {
      "inputs": [
        {
          "internalType": "uint256",
          "name": "index",
          "type": "uint256"
        }
      ],
      "name": "tokenByIndex",
      "outputs": [
        {
          "internalType": "uint256",
          "name": "",
          "type": "uint256"
        }
      ],
      "stateMutability": "view",
      "type": "function"
    },
    {
      "inputs": [
        {
          "internalType": "uint256",
          "name": "tokenId",
          "type": "uint256"
        }
      ],
      "name": "tokenMinter",
      "outputs": [
        {
          "internalType": "address",
          "name": "",
          "type": "address"
        }
      ],
      "stateMutability": "view",
      "type": "function"
    },
    {
      "inputs": [
        {
          "internalType": "address",
          "name": "owner",
          "type": "address"
        },
        {
          "internalType": "uint256",
          "name": "index",
          "type": "uint256"
        }
      ],
      "name": "tokenOfOwnerByIndex",
      "outputs": [
        {
          "internalType": "uint256",
          "name": "",
          "type": "uint256"
        }
      ],
      "stateMutability": "view",
      "type": "function"
    },
    {
      "inputs": [
        {
          "internalType": "uint256",
          "name": "tokenId",
          "type": "uint256"
        }
      ],
      "name": "tokenURI",
      "outputs": [
        {
          "internalType": "string",
          "name": "",
          "type": "string"
        }
      ],
      "stateMutability": "view",
      "type": "function"
    },
    {
      "inputs": [],
      "name": "totalDividend",
      "outputs": [
        {
          "internalType": "uint256",
          "name": "",
          "type": "uint256"
        }
      ],
      "stateMutability": "view",
      "type": "function"
    },
    {
      "inputs": [],
      "name": "totalSupply",
      "outputs": [
        {
          "internalType": "uint256",
          "name": "",
          "type": "uint256"
        }
      ],
      "stateMutability": "view",
      "type": "function"
    },
    {
      "inputs": [
        {
          "internalType": "address",
          "name": "from",
          "type": "address"
        },
        {
          "internalType": "address",
          "name": "to",
          "type": "address"
        },
        {
          "internalType": "uint256",
          "name": "tokenId",
          "type": "uint256"
        }
      ],
      "name": "transferFrom",
      "outputs": [],
      "stateMutability": "nonpayable",
      "type": "function"
    }
  ],
  "bytecode": "0x6080604052670de0b6b3a7640000600f5561271060105573c1f32c729c64976b4901f774513162756105a8e0601160006101000a81548173ffffffffffffffffffffffffffffffffffffffff021916908373ffffffffffffffffffffffffffffffffffffffff16021790555073c1f32c729c64976b4901f774513162756105a8e0601260006101000a81548173ffffffffffffffffffffffffffffffffffffffff021916908373ffffffffffffffffffffffffffffffffffffffff160217905550348015620000cd57600080fd5b5060405162005906380380620059068339818101604052810190620000f391906200026d565b828281600290805190602001906200010d9291906200014b565b508060039080519060200190620001269291906200014b565b50505080600e9080519060200190620001419291906200014b565b505050506200047e565b8280546200015990620003a3565b90600052602060002090601f0160209004810192826200017d5760008555620001c9565b82601f106200019857805160ff1916838001178555620001c9565b82800160010185558215620001c9579182015b82811115620001c8578251825591602001919060010190620001ab565b5b509050620001d89190620001dc565b5090565b5b80821115620001f7576000816000905550600101620001dd565b5090565b6000620002126200020c8462000337565b6200030e565b9050828152602081018484840111156200022b57600080fd5b620002388482856200036d565b509392505050565b600082601f8301126200025257600080fd5b815162000264848260208601620001fb565b91505092915050565b6000806000606084860312156200028357600080fd5b600084015167ffffffffffffffff8111156200029e57600080fd5b620002ac8682870162000240565b935050602084015167ffffffffffffffff811115620002ca57600080fd5b620002d88682870162000240565b925050604084015167ffffffffffffffff811115620002f657600080fd5b620003048682870162000240565b9150509250925092565b60006200031a6200032d565b9050620003288282620003d9565b919050565b6000604051905090565b600067ffffffffffffffff8211156200035557620003546200043e565b5b62000360826200046d565b9050602081019050919050565b60005b838110156200038d57808201518184015260208101905062000370565b838111156200039d576000848401525b50505050565b60006002820490506001821680620003bc57607f821691505b60208210811415620003d357620003d26200040f565b5b50919050565b620003e4826200046d565b810181811067ffffffffffffffff821117156200040657620004056200043e565b5b80604052505050565b7f4e487b7100000000000000000000000000000000000000000000000000000000600052602260045260246000fd5b7f4e487b7100000000000000000000000000000000000000000000000000000000600052604160045260246000fd5b6000601f19601f8301169050919050565b615478806200048e6000396000f3fe6080604052600436106102455760003560e01c80636352211e11610139578063a217fddf116100b6578063c87b56dd1161007a578063c87b56dd146108a9578063ca15c873146108e6578063d206885714610923578063d547741f14610960578063e985e9c514610989578063f9f8bdb7146109c657610245565b8063a217fddf146107c6578063a22cb465146107f1578063ac8d856c1461081a578063ae169a5014610857578063b88d4fde1461088057610245565b806391d14854116100fd57806391d14854146106ec57806395d89b411461072957806398bcede914610754578063a035b1fe1461077f578063a0712d68146107aa57610245565b80636352211e146105cf57806370a082311461060c5780637c57d947146106495780639010d07c1461068657806391b7f5ed146106c357610245565b8063248a9ca3116101c75780634131ff991161018b5780634131ff99146104ea57806342842e0e146105155780634b6acafb1461053e5780634f6ccce71461056957806355f804b3146105a657610245565b8063248a9ca3146104075780632f2ff15d146104445780632f745c591461046d57806336568abe146104aa578063372500ab146104d357610245565b8063081812fc1161020e578063081812fc14610324578063095ea7b314610361578063162094c41461038a57806318160ddd146103b357806323b872dd146103de57610245565b8062fe50c61461024a57806301eb99ec1461028757806301ffc9a7146102b2578063047d5e80146102ef57806306fdde03146102f9575b600080fd5b34801561025657600080fd5b50610271600480360381019061026c9190613df4565b6109f1565b60405161027e9190614781565b60405180910390f35b34801561029357600080fd5b5061029c610a1b565b6040516102a99190614781565b60405180910390f35b3480156102be57600080fd5b506102d960048036038101906102d49190613d61565b610a76565b6040516102e691906143e9565b60405180910390f35b6102f7610a88565b005b34801561030557600080fd5b5061030e610a93565b60405161031b919061441f565b60405180910390f35b34801561033057600080fd5b5061034b60048036038101906103469190613df4565b610b25565b6040516103589190614382565b60405180910390f35b34801561036d57600080fd5b5061038860048036038101906103839190613c84565b610baa565b005b34801561039657600080fd5b506103b160048036038101906103ac9190613e1d565b610cc2565b005b3480156103bf57600080fd5b506103c8610d23565b6040516103d59190614781565b60405180910390f35b3480156103ea57600080fd5b5061040560048036038101906104009190613b7e565b610d30565b005b34801561041357600080fd5b5061042e60048036038101906104299190613cc0565b610d90565b60405161043b9190614404565b60405180910390f35b34801561045057600080fd5b5061046b60048036038101906104669190613ce9565b610daf565b005b34801561047957600080fd5b50610494600480360381019061048f9190613c84565b610dd8565b6040516104a19190614781565b60405180910390f35b3480156104b657600080fd5b506104d160048036038101906104cc9190613ce9565b610e7d565b005b3480156104df57600080fd5b506104e8610f00565b005b3480156104f657600080fd5b506104ff610fb7565b60405161050c9190614781565b60405180910390f35b34801561052157600080fd5b5061053c60048036038101906105379190613b7e565b610fbd565b005b34801561054a57600080fd5b50610553610fdd565b6040516105609190614781565b60405180910390f35b34801561057557600080fd5b50610590600480360381019061058b9190613df4565b610fe3565b60405161059d9190614781565b60405180910390f35b3480156105b257600080fd5b506105cd60048036038101906105c89190613db3565b61107a565b005b3480156105db57600080fd5b506105f660048036038101906105f19190613df4565b6110e7565b6040516106039190614382565b60405180910390f35b34801561061857600080fd5b50610633600480360381019061062e9190613b19565b611199565b6040516106409190614781565b60405180910390f35b34801561065557600080fd5b50610670600480360381019061066b9190613df4565b611251565b60405161067d9190614382565b60405180910390f35b34801561069257600080fd5b506106ad60048036038101906106a89190613d25565b61128e565b6040516106ba9190614382565b60405180910390f35b3480156106cf57600080fd5b506106ea60048036038101906106e59190613df4565b6112bd565b005b3480156106f857600080fd5b50610713600480360381019061070e9190613ce9565b61131a565b60405161072091906143e9565b60405180910390f35b34801561073557600080fd5b5061073e611384565b60405161074b919061441f565b60405180910390f35b34801561076057600080fd5b50610769611416565b6040516107769190614781565b60405180910390f35b34801561078b57600080fd5b50610794611422565b6040516107a19190614781565b60405180910390f35b6107c460048036038101906107bf9190613df4565b61142c565b005b3480156107d257600080fd5b506107db6115a5565b6040516107e89190614404565b60405180910390f35b3480156107fd57600080fd5b5061081860048036038101906108139190613c48565b6115ac565b005b34801561082657600080fd5b50610841600480360381019061083c9190613df4565b6115c2565b60405161084e9190614382565b60405180910390f35b34801561086357600080fd5b5061087e60048036038101906108799190613df4565b6115f5565b005b34801561088c57600080fd5b506108a760048036038101906108a29190613bcd565b611731565b005b3480156108b557600080fd5b506108d060048036038101906108cb9190613df4565b611793565b6040516108dd919061441f565b60405180910390f35b3480156108f257600080fd5b5061090d60048036038101906109089190613cc0565b6117a5565b60405161091a9190614781565b60405180910390f35b34801561092f57600080fd5b5061094a60048036038101906109459190613df4565b6117c9565b6040516109579190614781565b60405180910390f35b34801561096c57600080fd5b5061098760048036038101906109829190613ce9565b6117e1565b005b34801561099557600080fd5b506109b060048036038101906109ab9190613b42565b61180a565b6040516109bd91906143e9565b60405180910390f35b3480156109d257600080fd5b506109db61189e565b6040516109e89190614781565b60405180910390f35b60006015600083815260200190815260200160002054601454610a149190614947565b9050919050565b600080610a2733611199565b90506000805b82811015610a6d576000610a413383610dd8565b9050610a4c816109f1565b83610a579190614866565b9250508080610a6590614ac8565b915050610a2d565b50809250505090565b6000610a81826118d3565b9050919050565b610a913461194d565b565b606060028054610aa290614a65565b80601f0160208091040260200160405190810160405280929190818152602001828054610ace90614a65565b8015610b1b5780601f10610af057610100808354040283529160200191610b1b565b820191906000526020600020905b815481529060010190602001808311610afe57829003601f168201915b5050505050905090565b6000610b308261198a565b610b6f576040517f08c379a0000000000000000000000000000000000000000000000000000000008152600401610b6690614661565b60405180910390fd5b6006600083815260200190815260200160002060009054906101000a900473ffffffffffffffffffffffffffffffffffffffff169050919050565b6000610bb5826110e7565b90508073ffffffffffffffffffffffffffffffffffffffff168373ffffffffffffffffffffffffffffffffffffffff161415610c26576040517f08c379a0000000000000000000000000000000000000000000000000000000008152600401610c1d906146a1565b60405180910390fd5b8073ffffffffffffffffffffffffffffffffffffffff16610c456119f6565b73ffffffffffffffffffffffffffffffffffffffff161480610c745750610c7381610c6e6119f6565b61180a565b5b610cb3576040517f08c379a0000000000000000000000000000000000000000000000000000000008152600401610caa906145a1565b60405180910390fd5b610cbd83836119fe565b505050565b610cd66000801b610cd16119f6565b61131a565b610d15576040517f08c379a0000000000000000000000000000000000000000000000000000000008152600401610d0c90614701565b60405180910390fd5b610d1f8282611ab7565b5050565b6000600a80549050905090565b610d41610d3b6119f6565b82611b2b565b610d80576040517f08c379a0000000000000000000000000000000000000000000000000000000008152600401610d77906146e1565b60405180910390fd5b610d8b838383611c09565b505050565b6000806000838152602001908152602001600020600101549050919050565b610db882610d90565b610dc981610dc46119f6565b611e70565b610dd38383611f0d565b505050565b6000610de383611199565b8210610e24576040517f08c379a0000000000000000000000000000000000000000000000000000000008152600401610e1b90614481565b60405180910390fd5b600860008473ffffffffffffffffffffffffffffffffffffffff1673ffffffffffffffffffffffffffffffffffffffff168152602001908152602001600020600083815260200190815260200160002054905092915050565b610e856119f6565b73ffffffffffffffffffffffffffffffffffffffff168173ffffffffffffffffffffffffffffffffffffffff1614610ef2576040517f08c379a0000000000000000000000000000000000000000000000000000000008152600401610ee990614761565b60405180910390fd5b610efc8282611f41565b5050565b6000610f0b33611199565b90506000805b82811015610f6b576000610f253383610dd8565b9050610f30816109f1565b83610f3b9190614866565b92506014546015600083815260200190815260200160002081905550508080610f6390614ac8565b915050610f11565b503373ffffffffffffffffffffffffffffffffffffffff166108fc829081150290604051600060405180830381858888f19350505050158015610fb2573d6000803e3d6000fd5b505050565b60135481565b610fd883838360405180602001604052806000815250611731565b505050565b60145481565b6000610fed610d23565b821061102e576040517f08c379a000000000000000000000000000000000000000000000000000000000815260040161102590614721565b60405180910390fd5b600a8281548110611068577f4e487b7100000000000000000000000000000000000000000000000000000000600052603260045260246000fd5b90600052602060002001549050919050565b61108e6000801b6110896119f6565b61131a565b6110cd576040517f08c379a00000000000000000000000000000000000000000000000000000000081526004016110c490614741565b60405180910390fd5b80600e90805190602001906110e3929190613928565b5050565b6000806004600084815260200190815260200160002060009054906101000a900473ffffffffffffffffffffffffffffffffffffffff169050600073ffffffffffffffffffffffffffffffffffffffff168173ffffffffffffffffffffffffffffffffffffffff161415611190576040517f08c379a0000000000000000000000000000000000000000000000000000000008152600401611187906145e1565b60405180910390fd5b80915050919050565b60008073ffffffffffffffffffffffffffffffffffffffff168273ffffffffffffffffffffffffffffffffffffffff16141561120a576040517f08c379a0000000000000000000000000000000000000000000000000000000008152600401611201906145c1565b60405180910390fd5b600560008373ffffffffffffffffffffffffffffffffffffffff1673ffffffffffffffffffffffffffffffffffffffff168152602001908152602001600020549050919050565b60006016600083815260200190815260200160002060009054906101000a900473ffffffffffffffffffffffffffffffffffffffff169050919050565b60006112b58260016000868152602001908152602001600020611f7590919063ffffffff16565b905092915050565b6112d16000801b6112cc6119f6565b61131a565b611310576040517f08c379a000000000000000000000000000000000000000000000000000000000815260040161130790614541565b60405180910390fd5b80600f8190555050565b600080600084815260200190815260200160002060000160008373ffffffffffffffffffffffffffffffffffffffff1673ffffffffffffffffffffffffffffffffffffffff16815260200190815260200160002060009054906101000a900460ff16905092915050565b60606003805461139390614a65565b80601f01602080910402602001604051908101604052809291908181526020018280546113bf90614a65565b801561140c5780601f106113e15761010080835404028352916020019161140c565b820191906000526020600020905b8154815290600101906020018083116113ef57829003601f168201915b5050505050905090565b600d8060000154905081565b6000600f54905090565b80600f5461143a91906148ed565b341461147b576040517f08c379a000000000000000000000000000000000000000000000000000000000815260040161147290614581565b60405180910390fd5b60105481611489600d611f8f565b6114939190614866565b11156114d4576040517f08c379a00000000000000000000000000000000000000000000000000000000081526004016114cb906146c1565b60405180910390fd5b60005b818110156115a1576114f2336114ed600d611f8f565b611f9d565b3360166000611501600d611f8f565b815260200190815260200160002060006101000a81548173ffffffffffffffffffffffffffffffffffffffff021916908373ffffffffffffffffffffffffffffffffffffffff1602179055506014546015600061155e600d611f8f565b81526020019081526020016000208190555061157a600d612177565b61158e823461158991906148bc565b61218d565b808061159990614ac8565b9150506114d7565b5050565b6000801b81565b6115be6115b76119f6565b83836122c3565b5050565b60166020528060005260406000206000915054906101000a900473ffffffffffffffffffffffffffffffffffffffff1681565b6115fd6119f6565b73ffffffffffffffffffffffffffffffffffffffff1661161c826110e7565b73ffffffffffffffffffffffffffffffffffffffff16148061167857506116416119f6565b73ffffffffffffffffffffffffffffffffffffffff1661166082610b25565b73ffffffffffffffffffffffffffffffffffffffff16145b6116b7576040517f08c379a00000000000000000000000000000000000000000000000000000000081526004016116ae90614461565b60405180910390fd5b60006116c2826109f1565b90506116cd826110e7565b73ffffffffffffffffffffffffffffffffffffffff166108fc829081150290604051600060405180830381858888f19350505050158015611712573d6000803e3d6000fd5b5060145460156000848152602001908152602001600020819055505050565b61174261173c6119f6565b83611b2b565b611781576040517f08c379a0000000000000000000000000000000000000000000000000000000008152600401611778906146e1565b60405180910390fd5b61178d84848484612430565b50505050565b606061179e8261248c565b9050919050565b60006117c2600160008481526020019081526020016000206125de565b9050919050565b60156020528060005260406000206000915090505481565b6117ea82610d90565b6117fb816117f66119f6565b611e70565b6118058383611f41565b505050565b6000600760008473ffffffffffffffffffffffffffffffffffffffff1673ffffffffffffffffffffffffffffffffffffffff16815260200190815260200160002060008373ffffffffffffffffffffffffffffffffffffffff1673ffffffffffffffffffffffffffffffffffffffff16815260200190815260200160002060009054906101000a900460ff16905092915050565b6000806118a9610d23565b14156118b857600090506118d0565b6118c0610d23565b6013546118cd91906148bc565b90505b90565b60007f780e9d63000000000000000000000000000000000000000000000000000000007bffffffffffffffffffffffffffffffffffffffffffffffffffffffff1916827bffffffffffffffffffffffffffffffffffffffffffffffffffffffff191614806119465750611945826125f3565b5b9050919050565b8060135461195b9190614866565b601381905550611969610d23565b8161197491906148bc565b6014546119819190614866565b60148190555050565b60008073ffffffffffffffffffffffffffffffffffffffff166004600084815260200190815260200160002060009054906101000a900473ffffffffffffffffffffffffffffffffffffffff1673ffffffffffffffffffffffffffffffffffffffff1614159050919050565b600033905090565b816006600083815260200190815260200160002060006101000a81548173ffffffffffffffffffffffffffffffffffffffff021916908373ffffffffffffffffffffffffffffffffffffffff160217905550808273ffffffffffffffffffffffffffffffffffffffff16611a71836110e7565b73ffffffffffffffffffffffffffffffffffffffff167f8c5be1e5ebec7d5bd14f71427d1e84f3dd0314c0f7b2291e5b200ac8c7c3b92560405160405180910390a45050565b611ac08261198a565b611aff576040517f08c379a0000000000000000000000000000000000000000000000000000000008152600401611af690614601565b60405180910390fd5b80600c60008481526020019081526020016000209080519060200190611b26929190613928565b505050565b6000611b368261198a565b611b75576040517f08c379a0000000000000000000000000000000000000000000000000000000008152600401611b6c90614561565b60405180910390fd5b6000611b80836110e7565b90508073ffffffffffffffffffffffffffffffffffffffff168473ffffffffffffffffffffffffffffffffffffffff161480611bef57508373ffffffffffffffffffffffffffffffffffffffff16611bd784610b25565b73ffffffffffffffffffffffffffffffffffffffff16145b80611c005750611bff818561180a565b5b91505092915050565b8273ffffffffffffffffffffffffffffffffffffffff16611c29826110e7565b73ffffffffffffffffffffffffffffffffffffffff1614611c7f576040517f08c379a0000000000000000000000000000000000000000000000000000000008152600401611c76906144c1565b60405180910390fd5b600073ffffffffffffffffffffffffffffffffffffffff168273ffffffffffffffffffffffffffffffffffffffff161415611cef576040517f08c379a0000000000000000000000000000000000000000000000000000000008152600401611ce690614501565b60405180910390fd5b611cfa8383836126d5565b611d056000826119fe565b6001600560008573ffffffffffffffffffffffffffffffffffffffff1673ffffffffffffffffffffffffffffffffffffffff1681526020019081526020016000206000828254611d559190614947565b925050819055506001600560008473ffffffffffffffffffffffffffffffffffffffff1673ffffffffffffffffffffffffffffffffffffffff1681526020019081526020016000206000828254611dac9190614866565b92505081905550816004600083815260200190815260200160002060006101000a81548173ffffffffffffffffffffffffffffffffffffffff021916908373ffffffffffffffffffffffffffffffffffffffff160217905550808273ffffffffffffffffffffffffffffffffffffffff168473ffffffffffffffffffffffffffffffffffffffff167fddf252ad1be2c89b69c2b068fc378daa952ba7f163c4a11628f55a4df523b3ef60405160405180910390a4611e6b8383836126fe565b505050565b611e7a828261131a565b611f0957611e9f8173ffffffffffffffffffffffffffffffffffffffff166014612703565b611ead8360001c6020612703565b604051602001611ebe929190614348565b6040516020818303038152906040526040517f08c379a0000000000000000000000000000000000000000000000000000000008152600401611f00919061441f565b60405180910390fd5b5050565b611f1782826129fd565b611f3c8160016000858152602001908152602001600020612add90919063ffffffff16565b505050565b611f4b8282612b0d565b611f708160016000858152602001908152602001600020612bee90919063ffffffff16565b505050565b6000611f848360000183612c1e565b60001c905092915050565b600081600001549050919050565b600073ffffffffffffffffffffffffffffffffffffffff168273ffffffffffffffffffffffffffffffffffffffff16141561200d576040517f08c379a000000000000000000000000000000000000000000000000000000000815260040161200490614621565b60405180910390fd5b6120168161198a565b15612056576040517f08c379a000000000000000000000000000000000000000000000000000000000815260040161204d906144e1565b60405180910390fd5b612062600083836126d5565b6001600560008473ffffffffffffffffffffffffffffffffffffffff1673ffffffffffffffffffffffffffffffffffffffff16815260200190815260200160002060008282546120b29190614866565b92505081905550816004600083815260200190815260200160002060006101000a81548173ffffffffffffffffffffffffffffffffffffffff021916908373ffffffffffffffffffffffffffffffffffffffff160217905550808273ffffffffffffffffffffffffffffffffffffffff16600073ffffffffffffffffffffffffffffffffffffffff167fddf252ad1be2c89b69c2b068fc378daa952ba7f163c4a11628f55a4df523b3ef60405160405180910390a4612173600083836126fe565b5050565b6001816000016000828254019250508190555050565b6000600a8261219c91906148bc565b905060006004600383856121b09190614947565b6121ba91906148ed565b6121c491906148bc565b90506000600483856121d69190614947565b6121e091906148bc565b90506121eb8361194d565b601160009054906101000a900473ffffffffffffffffffffffffffffffffffffffff1673ffffffffffffffffffffffffffffffffffffffff166108fc839081150290604051600060405180830381858888f19350505050158015612253573d6000803e3d6000fd5b50601260009054906101000a900473ffffffffffffffffffffffffffffffffffffffff1673ffffffffffffffffffffffffffffffffffffffff166108fc829081150290604051600060405180830381858888f193505050501580156122bc573d6000803e3d6000fd5b5050505050565b8173ffffffffffffffffffffffffffffffffffffffff168373ffffffffffffffffffffffffffffffffffffffff161415612332576040517f08c379a000000000000000000000000000000000000000000000000000000000815260040161232990614521565b60405180910390fd5b80600760008573ffffffffffffffffffffffffffffffffffffffff1673ffffffffffffffffffffffffffffffffffffffff16815260200190815260200160002060008473ffffffffffffffffffffffffffffffffffffffff1673ffffffffffffffffffffffffffffffffffffffff16815260200190815260200160002060006101000a81548160ff0219169083151502179055508173ffffffffffffffffffffffffffffffffffffffff168373ffffffffffffffffffffffffffffffffffffffff167f17307eab39ab6107e8899845ad3d59bd9653f200f220920489ca2b5937696c318360405161242391906143e9565b60405180910390a3505050565b61243b848484611c09565b61244784848484612c6f565b612486576040517f08c379a000000000000000000000000000000000000000000000000000000000815260040161247d906144a1565b60405180910390fd5b50505050565b60606124978261198a565b6124d6576040517f08c379a00000000000000000000000000000000000000000000000000000000081526004016124cd90614641565b60405180910390fd5b6000600c600084815260200190815260200160002080546124f690614a65565b80601f016020809104026020016040519081016040528092919081815260200182805461252290614a65565b801561256f5780601f106125445761010080835404028352916020019161256f565b820191906000526020600020905b81548152906001019060200180831161255257829003601f168201915b505050505090506000612580612e06565b90506000815114156125965781925050506125d9565b6000825111156125cb5780826040516020016125b3929190614324565b604051602081830303815290604052925050506125d9565b6125d484612e98565b925050505b919050565b60006125ec82600001612f3f565b9050919050565b60007f80ac58cd000000000000000000000000000000000000000000000000000000007bffffffffffffffffffffffffffffffffffffffffffffffffffffffff1916827bffffffffffffffffffffffffffffffffffffffffffffffffffffffff191614806126be57507f5b5e139f000000000000000000000000000000000000000000000000000000007bffffffffffffffffffffffffffffffffffffffffffffffffffffffff1916827bffffffffffffffffffffffffffffffffffffffffffffffffffffffff1916145b806126ce57506126cd82612f50565b5b9050919050565b806126de610d23565b11156126ee576126ed816115f5565b5b6126f9838383612fca565b505050565b505050565b60606000600283600261271691906148ed565b6127209190614866565b67ffffffffffffffff81111561275f577f4e487b7100000000000000000000000000000000000000000000000000000000600052604160045260246000fd5b6040519080825280601f01601f1916602001820160405280156127915781602001600182028036833780820191505090505b5090507f3000000000000000000000000000000000000000000000000000000000000000816000815181106127ef577f4e487b7100000000000000000000000000000000000000000000000000000000600052603260045260246000fd5b60200101907effffffffffffffffffffffffffffffffffffffffffffffffffffffffffffff1916908160001a9053507f780000000000000000000000000000000000000000000000000000000000000081600181518110612879577f4e487b7100000000000000000000000000000000000000000000000000000000600052603260045260246000fd5b60200101907effffffffffffffffffffffffffffffffffffffffffffffffffffffffffffff1916908160001a905350600060018460026128b991906148ed565b6128c39190614866565b90505b60018111156129af577f3031323334353637383961626364656600000000000000000000000000000000600f86166010811061292b577f4e487b7100000000000000000000000000000000000000000000000000000000600052603260045260246000fd5b1a60f81b828281518110612968577f4e487b7100000000000000000000000000000000000000000000000000000000600052603260045260246000fd5b60200101907effffffffffffffffffffffffffffffffffffffffffffffffffffffffffffff1916908160001a905350600485901c9450806129a890614a3b565b90506128c6565b50600084146129f3576040517f08c379a00000000000000000000000000000000000000000000000000000000081526004016129ea90614441565b60405180910390fd5b8091505092915050565b612a07828261131a565b612ad957600160008084815260200190815260200160002060000160008373ffffffffffffffffffffffffffffffffffffffff1673ffffffffffffffffffffffffffffffffffffffff16815260200190815260200160002060006101000a81548160ff021916908315150217905550612a7e6119f6565b73ffffffffffffffffffffffffffffffffffffffff168173ffffffffffffffffffffffffffffffffffffffff16837f2f8788117e7eff1d82e926ec794901d17c78024a50270940304540a733656f0d60405160405180910390a45b5050565b6000612b05836000018373ffffffffffffffffffffffffffffffffffffffff1660001b6130de565b905092915050565b612b17828261131a565b15612bea57600080600084815260200190815260200160002060000160008373ffffffffffffffffffffffffffffffffffffffff1673ffffffffffffffffffffffffffffffffffffffff16815260200190815260200160002060006101000a81548160ff021916908315150217905550612b8f6119f6565b73ffffffffffffffffffffffffffffffffffffffff168173ffffffffffffffffffffffffffffffffffffffff16837ff6391f5c32d9c69d2a47ea670b442974b53935d1edc7fd64eb21e047a839171b60405160405180910390a45b5050565b6000612c16836000018373ffffffffffffffffffffffffffffffffffffffff1660001b61314e565b905092915050565b6000826000018281548110612c5c577f4e487b7100000000000000000000000000000000000000000000000000000000600052603260045260246000fd5b9060005260206000200154905092915050565b6000612c908473ffffffffffffffffffffffffffffffffffffffff166132d4565b15612df9578373ffffffffffffffffffffffffffffffffffffffff1663150b7a02612cb96119f6565b8786866040518563ffffffff1660e01b8152600401612cdb949392919061439d565b602060405180830381600087803b158015612cf557600080fd5b505af1925050508015612d2657506040513d601f19601f82011682018060405250810190612d239190613d8a565b60015b612da9573d8060008114612d56576040519150601f19603f3d011682016040523d82523d6000602084013e612d5b565b606091505b50600081511415612da1576040517f08c379a0000000000000000000000000000000000000000000000000000000008152600401612d98906144a1565b60405180910390fd5b805181602001fd5b63150b7a0260e01b7bffffffffffffffffffffffffffffffffffffffffffffffffffffffff1916817bffffffffffffffffffffffffffffffffffffffffffffffffffffffff191614915050612dfe565b600190505b949350505050565b6060600e8054612e1590614a65565b80601f0160208091040260200160405190810160405280929190818152602001828054612e4190614a65565b8015612e8e5780601f10612e6357610100808354040283529160200191612e8e565b820191906000526020600020905b815481529060010190602001808311612e7157829003601f168201915b5050505050905090565b6060612ea38261198a565b612ee2576040517f08c379a0000000000000000000000000000000000000000000000000000000008152600401612ed990614681565b60405180910390fd5b6000612eec612e06565b90506000815111612f0c5760405180602001604052806000815250612f37565b80612f16846132f7565b604051602001612f27929190614324565b6040516020818303038152906040525b915050919050565b600081600001805490509050919050565b60007f5a05180f000000000000000000000000000000000000000000000000000000007bffffffffffffffffffffffffffffffffffffffffffffffffffffffff1916827bffffffffffffffffffffffffffffffffffffffffffffffffffffffff19161480612fc35750612fc2826134a4565b5b9050919050565b612fd583838361351e565b600073ffffffffffffffffffffffffffffffffffffffff168373ffffffffffffffffffffffffffffffffffffffff1614156130185761301381613523565b613057565b8173ffffffffffffffffffffffffffffffffffffffff168373ffffffffffffffffffffffffffffffffffffffff161461305657613055838261356c565b5b5b600073ffffffffffffffffffffffffffffffffffffffff168273ffffffffffffffffffffffffffffffffffffffff16141561309a57613095816136d9565b6130d9565b8273ffffffffffffffffffffffffffffffffffffffff168273ffffffffffffffffffffffffffffffffffffffff16146130d8576130d7828261381c565b5b5b505050565b60006130ea838361389b565b613143578260000182908060018154018082558091505060019003906000526020600020016000909190919091505582600001805490508360010160008481526020019081526020016000208190555060019050613148565b600090505b92915050565b600080836001016000848152602001908152602001600020549050600081146132c85760006001826131809190614947565b90506000600186600001805490506131989190614947565b90508181146132535760008660000182815481106131df577f4e487b7100000000000000000000000000000000000000000000000000000000600052603260045260246000fd5b9060005260206000200154905080876000018481548110613229577f4e487b7100000000000000000000000000000000000000000000000000000000600052603260045260246000fd5b90600052602060002001819055508387600101600083815260200190815260200160002081905550505b8560000180548061328d577f4e487b7100000000000000000000000000000000000000000000000000000000600052603160045260246000fd5b6001900381819060005260206000200160009055905585600101600086815260200190815260200160002060009055600193505050506132ce565b60009150505b92915050565b6000808273ffffffffffffffffffffffffffffffffffffffff163b119050919050565b6060600082141561333f576040518060400160405280600181526020017f3000000000000000000000000000000000000000000000000000000000000000815250905061349f565b600082905060005b6000821461337157808061335a90614ac8565b915050600a8261336a91906148bc565b9150613347565b60008167ffffffffffffffff8111156133b3577f4e487b7100000000000000000000000000000000000000000000000000000000600052604160045260246000fd5b6040519080825280601f01601f1916602001820160405280156133e55781602001600182028036833780820191505090505b5090505b60008514613498576001826133fe9190614947565b9150600a8561340d9190614b11565b60306134199190614866565b60f81b818381518110613455577f4e487b7100000000000000000000000000000000000000000000000000000000600052603260045260246000fd5b60200101907effffffffffffffffffffffffffffffffffffffffffffffffffffffffffffff1916908160001a905350600a8561349191906148bc565b94506133e9565b8093505050505b919050565b60007f7965db0b000000000000000000000000000000000000000000000000000000007bffffffffffffffffffffffffffffffffffffffffffffffffffffffff1916827bffffffffffffffffffffffffffffffffffffffffffffffffffffffff191614806135175750613516826138be565b5b9050919050565b505050565b600a80549050600b600083815260200190815260200160002081905550600a81908060018154018082558091505060019003906000526020600020016000909190919091505550565b6000600161357984611199565b6135839190614947565b9050600060096000848152602001908152602001600020549050818114613668576000600860008673ffffffffffffffffffffffffffffffffffffffff1673ffffffffffffffffffffffffffffffffffffffff168152602001908152602001600020600084815260200190815260200160002054905080600860008773ffffffffffffffffffffffffffffffffffffffff1673ffffffffffffffffffffffffffffffffffffffff168152602001908152602001600020600084815260200190815260200160002081905550816009600083815260200190815260200160002081905550505b6009600084815260200190815260200160002060009055600860008573ffffffffffffffffffffffffffffffffffffffff1673ffffffffffffffffffffffffffffffffffffffff16815260200190815260200160002060008381526020019081526020016000206000905550505050565b60006001600a805490506136ed9190614947565b90506000600b60008481526020019081526020016000205490506000600a8381548110613743577f4e487b7100000000000000000000000000000000000000000000000000000000600052603260045260246000fd5b9060005260206000200154905080600a838154811061378b577f4e487b7100000000000000000000000000000000000000000000000000000000600052603260045260246000fd5b906000526020600020018190555081600b600083815260200190815260200160002081905550600b600085815260200190815260200160002060009055600a805480613800577f4e487b7100000000000000000000000000000000000000000000000000000000600052603160045260246000fd5b6001900381819060005260206000200160009055905550505050565b600061382783611199565b905081600860008573ffffffffffffffffffffffffffffffffffffffff1673ffffffffffffffffffffffffffffffffffffffff168152602001908152602001600020600083815260200190815260200160002081905550806009600084815260200190815260200160002081905550505050565b600080836001016000848152602001908152602001600020541415905092915050565b60007f01ffc9a7000000000000000000000000000000000000000000000000000000007bffffffffffffffffffffffffffffffffffffffffffffffffffffffff1916827bffffffffffffffffffffffffffffffffffffffffffffffffffffffff1916149050919050565b82805461393490614a65565b90600052602060002090601f016020900481019282613956576000855561399d565b82601f1061396f57805160ff191683800117855561399d565b8280016001018555821561399d579182015b8281111561399c578251825591602001919060010190613981565b5b5090506139aa91906139ae565b5090565b5b808211156139c75760008160009055506001016139af565b5090565b60006139de6139d9846147c1565b61479c565b9050828152602081018484840111156139f657600080fd5b613a018482856149f9565b509392505050565b6000613a1c613a17846147f2565b61479c565b905082815260208101848484011115613a3457600080fd5b613a3f8482856149f9565b509392505050565b600081359050613a56816153cf565b92915050565b600081359050613a6b816153e6565b92915050565b600081359050613a80816153fd565b92915050565b600081359050613a9581615414565b92915050565b600081519050613aaa81615414565b92915050565b600082601f830112613ac157600080fd5b8135613ad18482602086016139cb565b91505092915050565b600082601f830112613aeb57600080fd5b8135613afb848260208601613a09565b91505092915050565b600081359050613b138161542b565b92915050565b600060208284031215613b2b57600080fd5b6000613b3984828501613a47565b91505092915050565b60008060408385031215613b5557600080fd5b6000613b6385828601613a47565b9250506020613b7485828601613a47565b9150509250929050565b600080600060608486031215613b9357600080fd5b6000613ba186828701613a47565b9350506020613bb286828701613a47565b9250506040613bc386828701613b04565b9150509250925092565b60008060008060808587031215613be357600080fd5b6000613bf187828801613a47565b9450506020613c0287828801613a47565b9350506040613c1387828801613b04565b925050606085013567ffffffffffffffff811115613c3057600080fd5b613c3c87828801613ab0565b91505092959194509250565b60008060408385031215613c5b57600080fd5b6000613c6985828601613a47565b9250506020613c7a85828601613a5c565b9150509250929050565b60008060408385031215613c9757600080fd5b6000613ca585828601613a47565b9250506020613cb685828601613b04565b9150509250929050565b600060208284031215613cd257600080fd5b6000613ce084828501613a71565b91505092915050565b60008060408385031215613cfc57600080fd5b6000613d0a85828601613a71565b9250506020613d1b85828601613a47565b9150509250929050565b60008060408385031215613d3857600080fd5b6000613d4685828601613a71565b9250506020613d5785828601613b04565b9150509250929050565b600060208284031215613d7357600080fd5b6000613d8184828501613a86565b91505092915050565b600060208284031215613d9c57600080fd5b6000613daa84828501613a9b565b91505092915050565b600060208284031215613dc557600080fd5b600082013567ffffffffffffffff811115613ddf57600080fd5b613deb84828501613ada565b91505092915050565b600060208284031215613e0657600080fd5b6000613e1484828501613b04565b91505092915050565b60008060408385031215613e3057600080fd5b6000613e3e85828601613b04565b925050602083013567ffffffffffffffff811115613e5b57600080fd5b613e6785828601613ada565b9150509250929050565b613e7a8161497b565b82525050565b613e898161498d565b82525050565b613e9881614999565b82525050565b6000613ea982614823565b613eb38185614839565b9350613ec3818560208601614a08565b613ecc81614bfe565b840191505092915050565b6000613ee28261482e565b613eec818561484a565b9350613efc818560208601614a08565b613f0581614bfe565b840191505092915050565b6000613f1b8261482e565b613f25818561485b565b9350613f35818560208601614a08565b80840191505092915050565b6000613f4e60208361484a565b9150613f5982614c0f565b602082019050919050565b6000613f7160328361484a565b9150613f7c82614c38565b604082019050919050565b6000613f94602b8361484a565b9150613f9f82614c87565b604082019050919050565b6000613fb760328361484a565b9150613fc282614cd6565b604082019050919050565b6000613fda60258361484a565b9150613fe582614d25565b604082019050919050565b6000613ffd601c8361484a565b915061400882614d74565b602082019050919050565b600061402060248361484a565b915061402b82614d9d565b604082019050919050565b600061404360198361484a565b915061404e82614dec565b602082019050919050565b6000614066602e8361484a565b915061407182614e15565b604082019050919050565b6000614089602c8361484a565b915061409482614e64565b604082019050919050565b60006140ac60218361484a565b91506140b782614eb3565b604082019050919050565b60006140cf60388361484a565b91506140da82614f02565b604082019050919050565b60006140f2602a8361484a565b91506140fd82614f51565b604082019050919050565b600061411560298361484a565b915061412082614fa0565b604082019050919050565b6000614138602e8361484a565b915061414382614fef565b604082019050919050565b600061415b60208361484a565b91506141668261503e565b602082019050919050565b600061417e60318361484a565b915061418982615067565b604082019050919050565b60006141a1602c8361484a565b91506141ac826150b6565b604082019050919050565b60006141c4602f8361484a565b91506141cf82615105565b604082019050919050565b60006141e760218361484a565b91506141f282615154565b604082019050919050565b600061420a60328361484a565b9150614215826151a3565b604082019050919050565b600061422d60318361484a565b9150614238826151f2565b604082019050919050565b600061425060328361484a565b915061425b82615241565b604082019050919050565b6000614273602c8361484a565b915061427e82615290565b604082019050919050565b600061429660178361485b565b91506142a1826152df565b601782019050919050565b60006142b960318361484a565b91506142c482615308565b604082019050919050565b60006142dc60118361485b565b91506142e782615357565b601182019050919050565b60006142ff602f8361484a565b915061430a82615380565b604082019050919050565b61431e816149ef565b82525050565b60006143308285613f10565b915061433c8284613f10565b91508190509392505050565b600061435382614289565b915061435f8285613f10565b915061436a826142cf565b91506143768284613f10565b91508190509392505050565b60006020820190506143976000830184613e71565b92915050565b60006080820190506143b26000830187613e71565b6143bf6020830186613e71565b6143cc6040830185614315565b81810360608301526143de8184613e9e565b905095945050505050565b60006020820190506143fe6000830184613e80565b92915050565b60006020820190506144196000830184613e8f565b92915050565b600060208201905081810360008301526144398184613ed7565b905092915050565b6000602082019050818103600083015261445a81613f41565b9050919050565b6000602082019050818103600083015261447a81613f64565b9050919050565b6000602082019050818103600083015261449a81613f87565b9050919050565b600060208201905081810360008301526144ba81613faa565b9050919050565b600060208201905081810360008301526144da81613fcd565b9050919050565b600060208201905081810360008301526144fa81613ff0565b9050919050565b6000602082019050818103600083015261451a81614013565b9050919050565b6000602082019050818103600083015261453a81614036565b9050919050565b6000602082019050818103600083015261455a81614059565b9050919050565b6000602082019050818103600083015261457a8161407c565b9050919050565b6000602082019050818103600083015261459a8161409f565b9050919050565b600060208201905081810360008301526145ba816140c2565b9050919050565b600060208201905081810360008301526145da816140e5565b9050919050565b600060208201905081810360008301526145fa81614108565b9050919050565b6000602082019050818103600083015261461a8161412b565b9050919050565b6000602082019050818103600083015261463a8161414e565b9050919050565b6000602082019050818103600083015261465a81614171565b9050919050565b6000602082019050818103600083015261467a81614194565b9050919050565b6000602082019050818103600083015261469a816141b7565b9050919050565b600060208201905081810360008301526146ba816141da565b9050919050565b600060208201905081810360008301526146da816141fd565b9050919050565b600060208201905081810360008301526146fa81614220565b9050919050565b6000602082019050818103600083015261471a81614243565b9050919050565b6000602082019050818103600083015261473a81614266565b9050919050565b6000602082019050818103600083015261475a816142ac565b9050919050565b6000602082019050818103600083015261477a816142f2565b9050919050565b60006020820190506147966000830184614315565b92915050565b60006147a66147b7565b90506147b28282614a97565b919050565b6000604051905090565b600067ffffffffffffffff8211156147dc576147db614bcf565b5b6147e582614bfe565b9050602081019050919050565b600067ffffffffffffffff82111561480d5761480c614bcf565b5b61481682614bfe565b9050602081019050919050565b600081519050919050565b600081519050919050565b600082825260208201905092915050565b600082825260208201905092915050565b600081905092915050565b6000614871826149ef565b915061487c836149ef565b9250827fffffffffffffffffffffffffffffffffffffffffffffffffffffffffffffffff038211156148b1576148b0614b42565b5b828201905092915050565b60006148c7826149ef565b91506148d2836149ef565b9250826148e2576148e1614b71565b5b828204905092915050565b60006148f8826149ef565b9150614903836149ef565b9250817fffffffffffffffffffffffffffffffffffffffffffffffffffffffffffffffff048311821515161561493c5761493b614b42565b5b828202905092915050565b6000614952826149ef565b915061495d836149ef565b9250828210156149705761496f614b42565b5b828203905092915050565b6000614986826149cf565b9050919050565b60008115159050919050565b6000819050919050565b60007fffffffff0000000000000000000000000000000000000000000000000000000082169050919050565b600073ffffffffffffffffffffffffffffffffffffffff82169050919050565b6000819050919050565b82818337600083830152505050565b60005b83811015614a26578082015181840152602081019050614a0b565b83811115614a35576000848401525b50505050565b6000614a46826149ef565b91506000821415614a5a57614a59614b42565b5b600182039050919050565b60006002820490506001821680614a7d57607f821691505b60208210811415614a9157614a90614ba0565b5b50919050565b614aa082614bfe565b810181811067ffffffffffffffff82111715614abf57614abe614bcf565b5b80604052505050565b6000614ad3826149ef565b91507fffffffffffffffffffffffffffffffffffffffffffffffffffffffffffffffff821415614b0657614b05614b42565b5b600182019050919050565b6000614b1c826149ef565b9150614b27836149ef565b925082614b3757614b36614b71565b5b828206905092915050565b7f4e487b7100000000000000000000000000000000000000000000000000000000600052601160045260246000fd5b7f4e487b7100000000000000000000000000000000000000000000000000000000600052601260045260246000fd5b7f4e487b7100000000000000000000000000000000000000000000000000000000600052602260045260246000fd5b7f4e487b7100000000000000000000000000000000000000000000000000000000600052604160045260246000fd5b6000601f19601f8301169050919050565b7f537472696e67733a20686578206c656e67746820696e73756666696369656e74600082015250565b7f41766178417065733a204f6e6c79206f776e6572206f7220617070726f76656460008201527f2063616e20636c61696d20726577617264730000000000000000000000000000602082015250565b7f455243373231456e756d657261626c653a206f776e657220696e646578206f7560008201527f74206f6620626f756e6473000000000000000000000000000000000000000000602082015250565b7f4552433732313a207472616e7366657220746f206e6f6e20455243373231526560008201527f63656976657220696d706c656d656e7465720000000000000000000000000000602082015250565b7f4552433732313a207472616e736665722066726f6d20696e636f72726563742060008201527f6f776e6572000000000000000000000000000000000000000000000000000000602082015250565b7f4552433732313a20746f6b656e20616c7265616479206d696e74656400000000600082015250565b7f4552433732313a207472616e7366657220746f20746865207a65726f2061646460008201527f7265737300000000000000000000000000000000000000000000000000000000602082015250565b7f4552433732313a20617070726f766520746f2063616c6c657200000000000000600082015250565b7f41766178417065733a206d75737420686176652061646d696e20726f6c65207460008201527f6f206368616e6765207072696365000000000000000000000000000000000000602082015250565b7f4552433732313a206f70657261746f7220717565727920666f72206e6f6e657860008201527f697374656e7420746f6b656e0000000000000000000000000000000000000000602082015250565b7f41766178417065733a206d7573742073656e6420636f7272656374207072696360008201527f6500000000000000000000000000000000000000000000000000000000000000602082015250565b7f4552433732313a20617070726f76652063616c6c6572206973206e6f74206f7760008201527f6e6572206e6f7220617070726f76656420666f7220616c6c0000000000000000602082015250565b7f4552433732313a2062616c616e636520717565727920666f7220746865207a6560008201527f726f206164647265737300000000000000000000000000000000000000000000602082015250565b7f4552433732313a206f776e657220717565727920666f72206e6f6e657869737460008201527f656e7420746f6b656e0000000000000000000000000000000000000000000000602082015250565b7f45524337323155524953746f726167653a2055524920736574206f66206e6f6e60008201527f6578697374656e7420746f6b656e000000000000000000000000000000000000602082015250565b7f4552433732313a206d696e7420746f20746865207a65726f2061646472657373600082015250565b7f45524337323155524953746f726167653a2055524920717565727920666f722060008201527f6e6f6e6578697374656e7420746f6b656e000000000000000000000000000000602082015250565b7f4552433732313a20617070726f76656420717565727920666f72206e6f6e657860008201527f697374656e7420746f6b656e0000000000000000000000000000000000000000602082015250565b7f4552433732314d657461646174613a2055524920717565727920666f72206e6f60008201527f6e6578697374656e7420746f6b656e0000000000000000000000000000000000602082015250565b7f4552433732313a20617070726f76616c20746f2063757272656e74206f776e6560008201527f7200000000000000000000000000000000000000000000000000000000000000602082015250565b7f41766178417065733a206e6f7420656e6f75676820617661782061706573206c60008201527f65667420746f206d696e7420616d6f756e740000000000000000000000000000602082015250565b7f4552433732313a207472616e736665722063616c6c6572206973206e6f74206f60008201527f776e6572206e6f7220617070726f766564000000000000000000000000000000602082015250565b7f41766178417065733a206d75737420686176652061646d696e20726f6c65207460008201527f6f206368616e676520746f6b656e205552490000000000000000000000000000602082015250565b7f455243373231456e756d657261626c653a20676c6f62616c20696e646578206f60008201527f7574206f6620626f756e64730000000000000000000000000000000000000000602082015250565b7f416363657373436f6e74726f6c3a206163636f756e7420000000000000000000600082015250565b7f41766178417065733a206d75737420686176652061646d696e20726f6c65207460008201527f6f206368616e6765206261736520555249000000000000000000000000000000602082015250565b7f206973206d697373696e6720726f6c6520000000000000000000000000000000600082015250565b7f416363657373436f6e74726f6c3a2063616e206f6e6c792072656e6f756e636560008201527f20726f6c657320666f722073656c660000000000000000000000000000000000602082015250565b6153d88161497b565b81146153e357600080fd5b50565b6153ef8161498d565b81146153fa57600080fd5b50565b61540681614999565b811461541157600080fd5b50565b61541d816149a3565b811461542857600080fd5b50565b615434816149ef565b811461543f57600080fd5b5056fea264697066735822122082c18efe1a1b4fef5bdb7cd6c76f5cfad14de6531132e66137b68a8f61a8cd4e64736f6c63430008040033",
  "linkReferences": {},
  "deployedLinkReferences": {}
}