{
  "_format": "hh-sol-artifact-1",
  "contractName": "NFTMarket",
  "sourceName": "contracts/NFTMarket.sol",
  "abi": [
    {
      "inputs": [
        {
          "internalType": "address",
          "name": "nft_address",
          "type": "address"
        },
        {
          "internalType": "uint256",
          "name": "dist_fee",
          "type": "uint256"
        },
        {
          "internalType": "uint256",
          "name": "market_fee",
          "type": "uint256"
        }
      ],
      "stateMutability": "nonpayable",
      "type": "constructor"
    },
    {
      "anonymous": false,
      "inputs": [
        {
          "components": [
            {
              "internalType": "bool",
              "name": "active",
              "type": "bool"
            },
            {
              "internalType": "uint256",
              "name": "id",
              "type": "uint256"
            },
            {
              "internalType": "uint256",
              "name": "tokenId",
              "type": "uint256"
            },
            {
              "internalType": "uint256",
              "name": "price",
              "type": "uint256"
            },
            {
              "internalType": "uint256",
              "name": "activeIndex",
              "type": "uint256"
            },
            {
              "internalType": "uint256",
              "name": "userActiveIndex",
              "type": "uint256"
            },
            {
              "internalType": "address",
              "name": "owner",
              "type": "address"
            },
            {
              "internalType": "string",
              "name": "tokenURI",
              "type": "string"
            }
          ],
          "indexed": false,
          "internalType": "struct NFTMarket.Listing",
          "name": "listing",
          "type": "tuple"
        }
      ],
      "name": "AddedListing",
      "type": "event"
    },
    {
      "anonymous": false,
      "inputs": [
        {
          "components": [
            {
              "internalType": "bool",
              "name": "active",
              "type": "bool"
            },
            {
              "internalType": "uint256",
              "name": "id",
              "type": "uint256"
            },
            {
              "internalType": "uint256",
              "name": "tokenId",
              "type": "uint256"
            },
            {
              "internalType": "uint256",
              "name": "price",
              "type": "uint256"
            },
            {
              "internalType": "uint256",
              "name": "activeIndex",
              "type": "uint256"
            },
            {
              "internalType": "uint256",
              "name": "userActiveIndex",
              "type": "uint256"
            },
            {
              "internalType": "address",
              "name": "owner",
              "type": "address"
            },
            {
              "internalType": "string",
              "name": "tokenURI",
              "type": "string"
            }
          ],
          "indexed": false,
          "internalType": "struct NFTMarket.Listing",
          "name": "listing",
          "type": "tuple"
        }
      ],
      "name": "CanceledListing",
      "type": "event"
    },
    {
      "anonymous": false,
      "inputs": [
        {
          "components": [
            {
              "components": [
                {
                  "internalType": "bool",
                  "name": "active",
                  "type": "bool"
                },
                {
                  "internalType": "uint256",
                  "name": "id",
                  "type": "uint256"
                },
                {
                  "internalType": "uint256",
                  "name": "tokenId",
                  "type": "uint256"
                },
                {
                  "internalType": "uint256",
                  "name": "price",
                  "type": "uint256"
                },
                {
                  "internalType": "uint256",
                  "name": "activeIndex",
                  "type": "uint256"
                },
                {
                  "internalType": "uint256",
                  "name": "userActiveIndex",
                  "type": "uint256"
                },
                {
                  "internalType": "address",
                  "name": "owner",
                  "type": "address"
                },
                {
                  "internalType": "string",
                  "name": "tokenURI",
                  "type": "string"
                }
              ],
              "internalType": "struct NFTMarket.Listing",
              "name": "listing",
              "type": "tuple"
            },
            {
              "internalType": "address",
              "name": "buyer",
              "type": "address"
            }
          ],
          "indexed": false,
          "internalType": "struct NFTMarket.Purchase",
          "name": "listing",
          "type": "tuple"
        }
      ],
      "name": "FilledListing",
      "type": "event"
    },
    {
      "anonymous": false,
      "inputs": [
        {
          "indexed": true,
          "internalType": "address",
          "name": "previousOwner",
          "type": "address"
        },
        {
          "indexed": true,
          "internalType": "address",
          "name": "newOwner",
          "type": "address"
        }
      ],
      "name": "OwnershipTransferred",
      "type": "event"
    },
    {
      "anonymous": false,
      "inputs": [
        {
          "components": [
            {
              "internalType": "bool",
              "name": "active",
              "type": "bool"
            },
            {
              "internalType": "uint256",
              "name": "id",
              "type": "uint256"
            },
            {
              "internalType": "uint256",
              "name": "tokenId",
              "type": "uint256"
            },
            {
              "internalType": "uint256",
              "name": "price",
              "type": "uint256"
            },
            {
              "internalType": "uint256",
              "name": "activeIndex",
              "type": "uint256"
            },
            {
              "internalType": "uint256",
              "name": "userActiveIndex",
              "type": "uint256"
            },
            {
              "internalType": "address",
              "name": "owner",
              "type": "address"
            },
            {
              "internalType": "string",
              "name": "tokenURI",
              "type": "string"
            }
          ],
          "indexed": false,
          "internalType": "struct NFTMarket.Listing",
          "name": "listing",
          "type": "tuple"
        }
      ],
      "name": "UpdateListing",
      "type": "event"
    },
    {
      "inputs": [
        {
          "internalType": "uint256",
          "name": "",
          "type": "uint256"
        }
      ],
      "name": "activeListings",
      "outputs": [
        {
          "internalType": "uint256",
          "name": "",
          "type": "uint256"
        }
      ],
      "stateMutability": "view",
      "type": "function"
    },
    {
      "inputs": [
        {
          "internalType": "uint256",
          "name": "tokenId",
          "type": "uint256"
        },
        {
          "internalType": "uint256",
          "name": "price",
          "type": "uint256"
        }
      ],
      "name": "addListing",
      "outputs": [],
      "stateMutability": "nonpayable",
      "type": "function"
    },
    {
      "inputs": [
        {
          "internalType": "uint256",
          "name": "newDistFee",
          "type": "uint256"
        },
        {
          "internalType": "uint256",
          "name": "newMarketFee",
          "type": "uint256"
        }
      ],
      "name": "adjustFees",
      "outputs": [],
      "stateMutability": "nonpayable",
      "type": "function"
    },
    {
      "inputs": [],
      "name": "allowEmergencyDelisting",
      "outputs": [],
      "stateMutability": "nonpayable",
      "type": "function"
    },
    {
      "inputs": [
        {
          "internalType": "uint256",
          "name": "id",
          "type": "uint256"
        }
      ],
      "name": "cancelListing",
      "outputs": [],
      "stateMutability": "nonpayable",
      "type": "function"
    },
    {
      "inputs": [
        {
          "internalType": "uint256",
          "name": "from",
          "type": "uint256"
        },
        {
          "internalType": "uint256",
          "name": "length",
          "type": "uint256"
        }
      ],
      "name": "claimListedRewards",
      "outputs": [],
      "stateMutability": "nonpayable",
      "type": "function"
    },
    {
      "inputs": [
        {
          "internalType": "uint256",
          "name": "from",
          "type": "uint256"
        },
        {
          "internalType": "uint256",
          "name": "length",
          "type": "uint256"
        }
      ],
      "name": "claimOwnedRewards",
      "outputs": [],
      "stateMutability": "nonpayable",
      "type": "function"
    },
    {
      "inputs": [],
      "name": "claimRewards",
      "outputs": [],
      "stateMutability": "nonpayable",
      "type": "function"
    },
    {
      "inputs": [],
      "name": "closeMarket",
      "outputs": [],
      "stateMutability": "nonpayable",
      "type": "function"
    },
    {
      "inputs": [],
      "name": "communityFeePercent",
      "outputs": [
        {
          "internalType": "uint256",
          "name": "",
          "type": "uint256"
        }
      ],
      "stateMutability": "view",
      "type": "function"
    },
    {
      "inputs": [],
      "name": "communityHoldings",
      "outputs": [
        {
          "internalType": "uint256",
          "name": "",
          "type": "uint256"
        }
      ],
      "stateMutability": "view",
      "type": "function"
    },
    {
      "inputs": [
        {
          "internalType": "uint256",
          "name": "",
          "type": "uint256"
        }
      ],
      "name": "communityRewards",
      "outputs": [
        {
          "internalType": "uint256",
          "name": "",
          "type": "uint256"
        }
      ],
      "stateMutability": "view",
      "type": "function"
    },
    {
      "inputs": [
        {
          "internalType": "uint256",
          "name": "listingID",
          "type": "uint256"
        }
      ],
      "name": "emergencyDelist",
      "outputs": [],
      "stateMutability": "nonpayable",
      "type": "function"
    },
    {
      "inputs": [],
      "name": "emergencyDelisting",
      "outputs": [
        {
          "internalType": "bool",
          "name": "",
          "type": "bool"
        }
      ],
      "stateMutability": "view",
      "type": "function"
    },
    {
      "inputs": [],
      "name": "emergencyWithdraw",
      "outputs": [],
      "stateMutability": "nonpayable",
      "type": "function"
    },
    {
      "inputs": [
        {
          "internalType": "uint256",
          "name": "id",
          "type": "uint256"
        }
      ],
      "name": "fulfillListing",
      "outputs": [],
      "stateMutability": "payable",
      "type": "function"
    },
    {
      "inputs": [
        {
          "internalType": "uint256",
          "name": "from",
          "type": "uint256"
        },
        {
          "internalType": "uint256",
          "name": "length",
          "type": "uint256"
        }
      ],
      "name": "getActiveListings",
      "outputs": [
        {
          "components": [
            {
              "internalType": "bool",
              "name": "active",
              "type": "bool"
            },
            {
              "internalType": "uint256",
              "name": "id",
              "type": "uint256"
            },
            {
              "internalType": "uint256",
              "name": "tokenId",
              "type": "uint256"
            },
            {
              "internalType": "uint256",
              "name": "price",
              "type": "uint256"
            },
            {
              "internalType": "uint256",
              "name": "activeIndex",
              "type": "uint256"
            },
            {
              "internalType": "uint256",
              "name": "userActiveIndex",
              "type": "uint256"
            },
            {
              "internalType": "address",
              "name": "owner",
              "type": "address"
            },
            {
              "internalType": "string",
              "name": "tokenURI",
              "type": "string"
            }
          ],
          "internalType": "struct NFTMarket.Listing[]",
          "name": "listing",
          "type": "tuple[]"
        }
      ],
      "stateMutability": "view",
      "type": "function"
    },
    {
      "inputs": [
        {
          "internalType": "uint256",
          "name": "from",
          "type": "uint256"
        },
        {
          "internalType": "uint256",
          "name": "length",
          "type": "uint256"
        }
      ],
      "name": "getMyActiveListings",
      "outputs": [
        {
          "components": [
            {
              "internalType": "bool",
              "name": "active",
              "type": "bool"
            },
            {
              "internalType": "uint256",
              "name": "id",
              "type": "uint256"
            },
            {
              "internalType": "uint256",
              "name": "tokenId",
              "type": "uint256"
            },
            {
              "internalType": "uint256",
              "name": "price",
              "type": "uint256"
            },
            {
              "internalType": "uint256",
              "name": "activeIndex",
              "type": "uint256"
            },
            {
              "internalType": "uint256",
              "name": "userActiveIndex",
              "type": "uint256"
            },
            {
              "internalType": "address",
              "name": "owner",
              "type": "address"
            },
            {
              "internalType": "string",
              "name": "tokenURI",
              "type": "string"
            }
          ],
          "internalType": "struct NFTMarket.Listing[]",
          "name": "listing",
          "type": "tuple[]"
        }
      ],
      "stateMutability": "view",
      "type": "function"
    },
    {
      "inputs": [],
      "name": "getMyActiveListingsCount",
      "outputs": [
        {
          "internalType": "uint256",
          "name": "",
          "type": "uint256"
        }
      ],
      "stateMutability": "view",
      "type": "function"
    },
    {
      "inputs": [],
      "name": "getRewards",
      "outputs": [
        {
          "internalType": "uint256",
          "name": "amount",
          "type": "uint256"
        }
      ],
      "stateMutability": "view",
      "type": "function"
    },
    {
      "inputs": [],
      "name": "highestSalePrice",
      "outputs": [
        {
          "internalType": "uint256",
          "name": "",
          "type": "uint256"
        }
      ],
      "stateMutability": "view",
      "type": "function"
    },
    {
      "inputs": [],
      "name": "isMarketOpen",
      "outputs": [
        {
          "internalType": "bool",
          "name": "",
          "type": "bool"
        }
      ],
      "stateMutability": "view",
      "type": "function"
    },
    {
      "inputs": [
        {
          "internalType": "uint256",
          "name": "",
          "type": "uint256"
        }
      ],
      "name": "listings",
      "outputs": [
        {
          "internalType": "bool",
          "name": "active",
          "type": "bool"
        },
        {
          "internalType": "uint256",
          "name": "id",
          "type": "uint256"
        },
        {
          "internalType": "uint256",
          "name": "tokenId",
          "type": "uint256"
        },
        {
          "internalType": "uint256",
          "name": "price",
          "type": "uint256"
        },
        {
          "internalType": "uint256",
          "name": "activeIndex",
          "type": "uint256"
        },
        {
          "internalType": "uint256",
          "name": "userActiveIndex",
          "type": "uint256"
        },
        {
          "internalType": "address",
          "name": "owner",
          "type": "address"
        },
        {
          "internalType": "string",
          "name": "tokenURI",
          "type": "string"
        }
      ],
      "stateMutability": "view",
      "type": "function"
    },
    {
      "inputs": [],
      "name": "marketFeePercent",
      "outputs": [
        {
          "internalType": "uint256",
          "name": "",
          "type": "uint256"
        }
      ],
      "stateMutability": "view",
      "type": "function"
    },
    {
      "inputs": [],
      "name": "openMarket",
      "outputs": [],
      "stateMutability": "nonpayable",
      "type": "function"
    },
    {
      "inputs": [],
      "name": "owner",
      "outputs": [
        {
          "internalType": "address",
          "name": "",
          "type": "address"
        }
      ],
      "stateMutability": "view",
      "type": "function"
    },
    {
      "inputs": [],
      "name": "renounceOwnership",
      "outputs": [],
      "stateMutability": "nonpayable",
      "type": "function"
    },
    {
      "inputs": [],
      "name": "totalActiveListings",
      "outputs": [
        {
          "internalType": "uint256",
          "name": "",
          "type": "uint256"
        }
      ],
      "stateMutability": "view",
      "type": "function"
    },
    {
      "inputs": [],
      "name": "totalGivenRewardsPerToken",
      "outputs": [
        {
          "internalType": "uint256",
          "name": "",
          "type": "uint256"
        }
      ],
      "stateMutability": "view",
      "type": "function"
    },
    {
      "inputs": [],
      "name": "totalListings",
      "outputs": [
        {
          "internalType": "uint256",
          "name": "",
          "type": "uint256"
        }
      ],
      "stateMutability": "view",
      "type": "function"
    },
    {
      "inputs": [],
      "name": "totalSales",
      "outputs": [
        {
          "internalType": "uint256",
          "name": "",
          "type": "uint256"
        }
      ],
      "stateMutability": "view",
      "type": "function"
    },
    {
      "inputs": [],
      "name": "totalVolume",
      "outputs": [
        {
          "internalType": "uint256",
          "name": "",
          "type": "uint256"
        }
      ],
      "stateMutability": "view",
      "type": "function"
    },
    {
      "inputs": [
        {
          "internalType": "address",
          "name": "newOwner",
          "type": "address"
        }
      ],
      "name": "transferOwnership",
      "outputs": [],
      "stateMutability": "nonpayable",
      "type": "function"
    },
    {
      "inputs": [
        {
          "internalType": "uint256",
          "name": "id",
          "type": "uint256"
        },
        {
          "internalType": "uint256",
          "name": "price",
          "type": "uint256"
        }
      ],
      "name": "updateListing",
      "outputs": [],
      "stateMutability": "nonpayable",
      "type": "function"
    },
    {
      "inputs": [
        {
          "internalType": "address",
          "name": "",
          "type": "address"
        },
        {
          "internalType": "uint256",
          "name": "",
          "type": "uint256"
        }
      ],
      "name": "userActiveListings",
      "outputs": [
        {
          "internalType": "uint256",
          "name": "",
          "type": "uint256"
        }
      ],
      "stateMutability": "view",
      "type": "function"
    },
    {
      "inputs": [],
      "name": "withdrawBalance",
      "outputs": [],
      "stateMutability": "nonpayable",
      "type": "function"
    },
    {
      "inputs": [],
      "name": "withdrawableBalance",
      "outputs": [
        {
          "internalType": "uint256",
          "name": "value",
          "type": "uint256"
        }
      ],
      "stateMutability": "view",
      "type": "function"
    }
  ],
  "bytecode": "0x60806040526000600755600060085560006009556000600a556000600b556000600c556000600d556000600e60006101000a81548160ff0219169083151502179055506000600e60016101000a81548160ff0219169083151502179055503480156200006a57600080fd5b5060405162005b4338038062005b438339818101604052810190620000909190620002d1565b620000b0620000a4620001d760201b60201c565b620001df60201b60201c565b6064821115620000f7576040517f08c379a0000000000000000000000000000000000000000000000000000000008152600401620000ee906200034e565b60405180910390fd5b60648111156200013e576040517f08c379a000000000000000000000000000000000000000000000000000000000815260040162000135906200034e565b60405180910390fd5b82600160006101000a81548173ffffffffffffffffffffffffffffffffffffffff021916908373ffffffffffffffffffffffffffffffffffffffff16021790555082600260006101000a81548173ffffffffffffffffffffffffffffffffffffffff021916908373ffffffffffffffffffffffffffffffffffffffff160217905550816008819055508060098190555050505062000442565b600033905090565b60008060009054906101000a900473ffffffffffffffffffffffffffffffffffffffff169050816000806101000a81548173ffffffffffffffffffffffffffffffffffffffff021916908373ffffffffffffffffffffffffffffffffffffffff1602179055508173ffffffffffffffffffffffffffffffffffffffff168173ffffffffffffffffffffffffffffffffffffffff167f8be0079c531659141344cd1fd0a4f28419497f9722a3daafe3b4186f6b6457e060405160405180910390a35050565b600081519050620002b4816200040e565b92915050565b600081519050620002cb8162000428565b92915050565b600080600060608486031215620002e757600080fd5b6000620002f786828701620002a3565b93505060206200030a86828701620002ba565b92505060406200031d86828701620002ba565b9150509250925092565b60006200033660258362000370565b91506200034382620003bf565b604082019050919050565b60006020820190508181036000830152620003698162000327565b9050919050565b600082825260208201905092915050565b60006200038e8262000395565b9050919050565b600073ffffffffffffffffffffffffffffffffffffffff82169050919050565b6000819050919050565b7f4769766520612070657263656e746167652076616c75652066726f6d2030207460008201527f6f20313030000000000000000000000000000000000000000000000000000000602082015250565b620004198162000381565b81146200042557600080fd5b50565b6200043381620003b5565b81146200043f57600080fd5b50565b6156f180620004526000396000f3fe60806040526004361061021a5760003560e01c8063741520b011610123578063c06d61f5116100ab578063db2e21bc1161006f578063db2e21bc14610732578063de74e57b14610749578063e62d64f61461078d578063f2fde38b146107b8578063f7cae643146107e15761021a565b8063c06d61f51461064b578063c128b23114610688578063c511ed5e146106c5578063c78b616c146106dc578063d4ce85f3146107075761021a565b8063aaf51b7e116100f2578063aaf51b7e14610566578063aca20f0714610591578063b2245558146105bc578063b59da06b146105f9578063b9d2326e146106225761021a565b8063741520b0146104bc57806374ee6d4f146104e7578063836cf6e9146105125780638da5cb5b1461053b5761021a565b80633fe1e117116101a657806361cf48631161017557806361cf4863146103e9578063632541b4146104265780636605ff661461044f5780636d0c689e1461047a578063715018a6146104a55761021a565b80633fe1e117146103655780635f81a57c146103905780635fd8c710146103bb578063607133a0146103d25761021a565b8063297dc18c116101ed578063297dc18c146102c7578063305a67a8146102f25780633606f5b91461031b578063372500ab146103325780633912fc85146103495761021a565b80630179ea881461021f5780630572b0cc1461024857806315f4d22a1461027357806325507cbe1461029e575b600080fd5b34801561022b57600080fd5b5061024660048036038101906102419190614436565b61081e565b005b34801561025457600080fd5b5061025d610aa8565b60405161026a9190614eb5565b60405180910390f35b34801561027f57600080fd5b50610288610de8565b6040516102959190614eb5565b60405180910390f35b3480156102aa57600080fd5b506102c560048036038101906102c09190614436565b610e32565b005b3480156102d357600080fd5b506102dc6110cf565b6040516102e99190614eb5565b60405180910390f35b3480156102fe57600080fd5b50610319600480360381019061031491906143e4565b6110d5565b005b34801561032757600080fd5b506103306114b2565b005b34801561033e57600080fd5b5061034761154b565b005b610363600480360381019061035e91906143e4565b611938565b005b34801561037157600080fd5b5061037a612172565b6040516103879190614eb5565b60405180910390f35b34801561039c57600080fd5b506103a5612178565b6040516103b29190614eb5565b60405180910390f35b3480156103c757600080fd5b506103d061217e565b005b3480156103de57600080fd5b506103e7612257565b005b3480156103f557600080fd5b50610410600480360381019061040b91906143e4565b6122f0565b60405161041d9190614eb5565b60405180910390f35b34801561043257600080fd5b5061044d600480360381019061044891906143e4565b612314565b005b34801561045b57600080fd5b506104646125ed565b6040516104719190614eb5565b60405180910390f35b34801561048657600080fd5b5061048f6125f3565b60405161049c9190614eb5565b60405180910390f35b3480156104b157600080fd5b506104ba6125f9565b005b3480156104c857600080fd5b506104d1612681565b6040516104de9190614eb5565b60405180910390f35b3480156104f357600080fd5b506104fc61268e565b6040516105099190614eb5565b60405180910390f35b34801561051e57600080fd5b5061053960048036038101906105349190614436565b612694565b005b34801561054757600080fd5b50610550612b37565b60405161055d9190614b12565b60405180910390f35b34801561057257600080fd5b5061057b612b60565b6040516105889190614eb5565b60405180910390f35b34801561059d57600080fd5b506105a6612b66565b6040516105b39190614baf565b60405180910390f35b3480156105c857600080fd5b506105e360048036038101906105de919061432b565b612b79565b6040516105f09190614eb5565b60405180910390f35b34801561060557600080fd5b50610620600480360381019061061b9190614436565b612baa565b005b34801561062e57600080fd5b5061064960048036038101906106449190614436565b612e41565b005b34801561065757600080fd5b50610672600480360381019061066d9190614436565b612f57565b60405161067f9190614b8d565b60405180910390f35b34801561069457600080fd5b506106af60048036038101906106aa9190614436565b613385565b6040516106bc9190614b8d565b60405180910390f35b3480156106d157600080fd5b506106da613739565b005b3480156106e857600080fd5b506106f16137d2565b6040516106fe9190614eb5565b60405180910390f35b34801561071357600080fd5b5061071c6137df565b6040516107299190614baf565b60405180910390f35b34801561073e57600080fd5b506107476137f2565b005b34801561075557600080fd5b50610770600480360381019061076b91906143e4565b6138be565b604051610784989796959493929190614bca565b60405180910390f35b34801561079957600080fd5b506107a26139cb565b6040516107af9190614eb5565b60405180910390f35b3480156107c457600080fd5b506107df60048036038101906107da91906142d9565b6139f3565b005b3480156107ed57600080fd5b50610808600480360381019061080391906143e4565b613aeb565b6040516108159190614eb5565b60405180910390f35b6003805490508210610865576040517f08c379a000000000000000000000000000000000000000000000000000000000815260040161085c90614d6f565b60405180910390fd5b6003828154811061089f577f4e487b7100000000000000000000000000000000000000000000000000000000600052603260045260246000fd5b906000526020600020906008020160000160009054906101000a900460ff166108fd576040517f08c379a00000000000000000000000000000000000000000000000000000000081526004016108f490614daf565b60405180910390fd5b3373ffffffffffffffffffffffffffffffffffffffff166003838154811061094e577f4e487b7100000000000000000000000000000000000000000000000000000000600052603260045260246000fd5b906000526020600020906008020160060160009054906101000a900473ffffffffffffffffffffffffffffffffffffffff1673ffffffffffffffffffffffffffffffffffffffff16146109d6576040517f08c379a00000000000000000000000000000000000000000000000000000000081526004016109cd90614c4f565b60405180910390fd5b8060038381548110610a11577f4e487b7100000000000000000000000000000000000000000000000000000000600052603260045260246000fd5b9060005260206000209060080201600301819055507f6573c92d06624f1550d2e52db2c9ef1d734beffdbb4d55cc366e6a5a4302edbb60038381548110610a81577f4e487b7100000000000000000000000000000000000000000000000000000000600052603260045260246000fd5b9060005260206000209060080201604051610a9c9190614e71565b60405180910390a15050565b600080600160009054906101000a900473ffffffffffffffffffffffffffffffffffffffff1673ffffffffffffffffffffffffffffffffffffffff166370a08231336040518263ffffffff1660e01b8152600401610b069190614b12565b60206040518083038186803b158015610b1e57600080fd5b505afa158015610b32573d6000803e3d6000fd5b505050506040513d601f19601f82011682018060405250810190610b56919061440d565b90506000805b82811015610c62576000600160009054906101000a900473ffffffffffffffffffffffffffffffffffffffff1673ffffffffffffffffffffffffffffffffffffffff16632f745c5933846040518363ffffffff1660e01b8152600401610bc3929190614b64565b60206040518083038186803b158015610bdb57600080fd5b505afa158015610bef573d6000803e3d6000fd5b505050506040513d601f19601f82011682018060405250810190610c13919061440d565b9050612710811015610c4e576006600082815260200190815260200160002054600d54610c4091906150ab565b83610c4b9190614fca565b92505b508080610c5a90615242565b915050610b5c565b506000600560003373ffffffffffffffffffffffffffffffffffffffff1673ffffffffffffffffffffffffffffffffffffffff168152602001908152602001600020805480602002602001604051908101604052809291908181526020018280548015610cee57602002820191906000526020600020905b815481526020019060010190808311610cda575b5050505050905060005b8151811015610dde5760006003838381518110610d3e577f4e487b7100000000000000000000000000000000000000000000000000000000600052603260045260246000fd5b602002602001015181548110610d7d577f4e487b7100000000000000000000000000000000000000000000000000000000600052603260045260246000fd5b9060005260206000209060080201600201549050612710811015610dca576006600082815260200190815260200160002054600d54610dbc91906150ab565b84610dc79190614fca565b93505b508080610dd690615242565b915050610cf8565b5081935050505090565b6000600560003373ffffffffffffffffffffffffffffffffffffffff1673ffffffffffffffffffffffffffffffffffffffff16815260200190815260200160002080549050905090565b6000600160009054906101000a900473ffffffffffffffffffffffffffffffffffffffff1673ffffffffffffffffffffffffffffffffffffffff166370a08231336040518263ffffffff1660e01b8152600401610e8f9190614b12565b60206040518083038186803b158015610ea757600080fd5b505afa158015610ebb573d6000803e3d6000fd5b505050506040513d601f19601f82011682018060405250810190610edf919061440d565b9050808284610eee9190614fca565b1115610f2f576040517f08c379a0000000000000000000000000000000000000000000000000000000008152600401610f2690614dcf565b60405180910390fd5b600080600754905060005b84811015611079576000600160009054906101000a900473ffffffffffffffffffffffffffffffffffffffff1673ffffffffffffffffffffffffffffffffffffffff16632f745c59338985610f8f9190614fca565b6040518363ffffffff1660e01b8152600401610fac929190614b64565b60206040518083038186803b158015610fc457600080fd5b505afa158015610fd8573d6000803e3d6000fd5b505050506040513d601f19601f82011682018060405250810190610ffc919061440d565b90506127108110156110655760006006600083815260200190815260200160002054600d5461102b91906150ab565b905080856110399190614fca565b9450808461104791906150ab565b9350600d546006600084815260200190815260200160002081905550505b50808061107190615242565b915050610f3a565b50806007819055503373ffffffffffffffffffffffffffffffffffffffff166108fc839081150290604051600060405180830381858888f193505050501580156110c7573d6000803e3d6000fd5b505050505050565b60075481565b600380549050811061111c576040517f08c379a000000000000000000000000000000000000000000000000000000000815260040161111390614d6f565b60405180910390fd5b600060038281548110611158577f4e487b7100000000000000000000000000000000000000000000000000000000600052603260045260246000fd5b9060005260206000209060080201604051806101000160405290816000820160009054906101000a900460ff1615151515815260200160018201548152602001600282015481526020016003820154815260200160048201548152602001600582015481526020016006820160009054906101000a900473ffffffffffffffffffffffffffffffffffffffff1673ffffffffffffffffffffffffffffffffffffffff1673ffffffffffffffffffffffffffffffffffffffff16815260200160078201805461122590615191565b80601f016020809104026020016040519081016040528092919081815260200182805461125190615191565b801561129e5780601f106112735761010080835404028352916020019161129e565b820191906000526020600020905b81548152906001019060200180831161128157829003601f168201915b505050505081525050905080600001516112ed576040517f08c379a00000000000000000000000000000000000000000000000000000000081526004016112e490614daf565b60405180910390fd5b3373ffffffffffffffffffffffffffffffffffffffff168160c0015173ffffffffffffffffffffffffffffffffffffffff161461135f576040517f08c379a000000000000000000000000000000000000000000000000000000000815260040161135690614c4f565b60405180910390fd5b61136c8160800151613b03565b61137a338260a00151613d11565b6000600383815481106113b6577f4e487b7100000000000000000000000000000000000000000000000000000000600052603260045260246000fd5b906000526020600020906008020160000160006101000a81548160ff0219169083151502179055507fe528a318be90ec19d902d617245e04bad4f16f80e3d921e41e967c502c366bf48160405161140d9190614e4f565b60405180910390a1600160009054906101000a900473ffffffffffffffffffffffffffffffffffffffff1673ffffffffffffffffffffffffffffffffffffffff166323b872dd308360c0015184604001516040518463ffffffff1660e01b815260040161147c93929190614b2d565b600060405180830381600087803b15801561149657600080fd5b505af11580156114aa573d6000803e3d6000fd5b505050505050565b6114ba614051565b73ffffffffffffffffffffffffffffffffffffffff166114d8612b37565b73ffffffffffffffffffffffffffffffffffffffff161461152e576040517f08c379a000000000000000000000000000000000000000000000000000000000815260040161152590614d8f565b60405180910390fd5b6001600e60006101000a81548160ff021916908315150217905550565b6000600160009054906101000a900473ffffffffffffffffffffffffffffffffffffffff1673ffffffffffffffffffffffffffffffffffffffff166370a08231336040518263ffffffff1660e01b81526004016115a89190614b12565b60206040518083038186803b1580156115c057600080fd5b505afa1580156115d4573d6000803e3d6000fd5b505050506040513d601f19601f820116820180604052508101906115f8919061440d565b9050600080600754905060005b83811015611739576000600160009054906101000a900473ffffffffffffffffffffffffffffffffffffffff1673ffffffffffffffffffffffffffffffffffffffff16632f745c5933846040518363ffffffff1660e01b815260040161166c929190614b64565b60206040518083038186803b15801561168457600080fd5b505afa158015611698573d6000803e3d6000fd5b505050506040513d601f19601f820116820180604052508101906116bc919061440d565b90506127108110156117255760006006600083815260200190815260200160002054600d546116eb91906150ab565b905080856116f99190614fca565b9450808461170791906150ab565b9350600d546006600084815260200190815260200160002081905550505b50808061173190615242565b915050611605565b506000600560003373ffffffffffffffffffffffffffffffffffffffff1673ffffffffffffffffffffffffffffffffffffffff1681526020019081526020016000208054806020026020016040519081016040528092919081815260200182805480156117c557602002820191906000526020600020905b8154815260200190600101908083116117b1575b5050505050905060005b81518110156118e35760006003838381518110611815577f4e487b7100000000000000000000000000000000000000000000000000000000600052603260045260246000fd5b602002602001015181548110611854577f4e487b7100000000000000000000000000000000000000000000000000000000600052603260045260246000fd5b90600052602060002090600802016002015490506127108110156118cf5760006006600083815260200190815260200160002054600d5461189591906150ab565b905080866118a39190614fca565b955080856118b191906150ab565b9450600d546006600084815260200190815260200160002081905550505b5080806118db90615242565b9150506117cf565b50816007819055503373ffffffffffffffffffffffffffffffffffffffff166108fc849081150290604051600060405180830381858888f19350505050158015611931573d6000803e3d6000fd5b5050505050565b600380549050811061197f576040517f08c379a000000000000000000000000000000000000000000000000000000000815260040161197690614d6f565b60405180910390fd5b6000600382815481106119bb577f4e487b7100000000000000000000000000000000000000000000000000000000600052603260045260246000fd5b9060005260206000209060080201604051806101000160405290816000820160009054906101000a900460ff1615151515815260200160018201548152602001600282015481526020016003820154815260200160048201548152602001600582015481526020016006820160009054906101000a900473ffffffffffffffffffffffffffffffffffffffff1673ffffffffffffffffffffffffffffffffffffffff1673ffffffffffffffffffffffffffffffffffffffff168152602001600782018054611a8890615191565b80601f0160208091040260200160405190810160405280929190818152602001828054611ab490615191565b8015611b015780601f10611ad657610100808354040283529160200191611b01565b820191906000526020600020905b815481529060010190602001808311611ae457829003601f168201915b50505050508152505090508060000151611b50576040517f08c379a0000000000000000000000000000000000000000000000000000000008152600401611b4790614daf565b60405180910390fd5b8060600151341015611b97576040517f08c379a0000000000000000000000000000000000000000000000000000000008152600401611b8e90614d4f565b60405180910390fd5b8060c0015173ffffffffffffffffffffffffffffffffffffffff163373ffffffffffffffffffffffffffffffffffffffff161415611c0a576040517f08c379a0000000000000000000000000000000000000000000000000000000008152600401611c0190614caf565b60405180910390fd5b600080600260009054906101000a900473ffffffffffffffffffffffffffffffffffffffff1673ffffffffffffffffffffffffffffffffffffffff16632a55205a846040015185606001516040518363ffffffff1660e01b8152600401611c72929190614ed0565b604080518083038186803b158015611c8957600080fd5b505afa158015611c9d573d6000803e3d6000fd5b505050506040513d601f19601f82011682018060405250810190611cc19190614367565b91509150600060646008548560600151611cdb9190615051565b611ce59190615020565b9050600060646009548660600151611cfd9190615051565b611d079190615020565b905060008183858860600151611d1d91906150ab565b611d2791906150ab565b611d3191906150ab565b9050600060038881548110611d6f577f4e487b7100000000000000000000000000000000000000000000000000000000600052603260045260246000fd5b906000526020600020906008020160000160006101000a81548160ff021916908315150217905550611da48660800151613b03565b611db68660c001518760a00151613d11565b8560600151600a6000828254611dcc9190614fca565b925050819055506001600b6000828254611de69190614fca565b92505081905550600c5486606001511115611e07578560600151600c819055505b600061271084611e179190615020565b905080600d6000828254611e2b9190614fca565b9250508190555061271081611e409190615051565b60076000828254611e519190614fca565b925050819055507f39291c34aa742133bb74dc9eff45ef96ee9d628242ab8e2bd2dc403f8679661a604051806040016040528060038b81548110611ebe577f4e487b7100000000000000000000000000000000000000000000000000000000600052603260045260246000fd5b9060005260206000209060080201604051806101000160405290816000820160009054906101000a900460ff1615151515815260200160018201548152602001600282015481526020016003820154815260200160048201548152602001600582015481526020016006820160009054906101000a900473ffffffffffffffffffffffffffffffffffffffff1673ffffffffffffffffffffffffffffffffffffffff1673ffffffffffffffffffffffffffffffffffffffff168152602001600782018054611f8b90615191565b80601f0160208091040260200160405190810160405280929190818152602001828054611fb790615191565b80156120045780601f10611fd957610100808354040283529160200191612004565b820191906000526020600020905b815481529060010190602001808311611fe757829003601f168201915b50505050508152505081526020013373ffffffffffffffffffffffffffffffffffffffff168152506040516120399190614e93565b60405180910390a18660c0015173ffffffffffffffffffffffffffffffffffffffff166108fc839081150290604051600060405180830381858888f1935050505015801561208b573d6000803e3d6000fd5b508573ffffffffffffffffffffffffffffffffffffffff166108fc869081150290604051600060405180830381858888f193505050501580156120d2573d6000803e3d6000fd5b50600160009054906101000a900473ffffffffffffffffffffffffffffffffffffffff1673ffffffffffffffffffffffffffffffffffffffff166323b872dd30338a604001516040518463ffffffff1660e01b815260040161213693929190614b2d565b600060405180830381600087803b15801561215057600080fd5b505af1158015612164573d6000803e3d6000fd5b505050505050505050505050565b600c5481565b600a5481565b612186614051565b73ffffffffffffffffffffffffffffffffffffffff166121a4612b37565b73ffffffffffffffffffffffffffffffffffffffff16146121fa576040517f08c379a00000000000000000000000000000000000000000000000000000000081526004016121f190614d8f565b60405180910390fd5b60006122046139cb565b905061220e614051565b73ffffffffffffffffffffffffffffffffffffffff166108fc829081150290604051600060405180830381858888f19350505050158015612253573d6000803e3d6000fd5b5050565b61225f614051565b73ffffffffffffffffffffffffffffffffffffffff1661227d612b37565b73ffffffffffffffffffffffffffffffffffffffff16146122d3576040517f08c379a00000000000000000000000000000000000000000000000000000000081526004016122ca90614d8f565b60405180910390fd5b6001600e60016101000a81548160ff021916908315150217905550565b6004818154811061230057600080fd5b906000526020600020016000915090505481565b600e60019054906101000a900460ff16801561233d5750600e60009054906101000a900460ff16155b61237c576040517f08c379a000000000000000000000000000000000000000000000000000000000815260040161237390614ccf565b60405180910390fd5b60038054905081106123c3576040517f08c379a00000000000000000000000000000000000000000000000000000000081526004016123ba90614d6f565b60405180910390fd5b6000600382815481106123ff577f4e487b7100000000000000000000000000000000000000000000000000000000600052603260045260246000fd5b9060005260206000209060080201604051806101000160405290816000820160009054906101000a900460ff1615151515815260200160018201548152602001600282015481526020016003820154815260200160048201548152602001600582015481526020016006820160009054906101000a900473ffffffffffffffffffffffffffffffffffffffff1673ffffffffffffffffffffffffffffffffffffffff1673ffffffffffffffffffffffffffffffffffffffff1681526020016007820180546124cc90615191565b80601f01602080910402602001604051908101604052809291908181526020018280546124f890615191565b80156125455780601f1061251a57610100808354040283529160200191612545565b820191906000526020600020905b81548152906001019060200180831161252857829003601f168201915b5050505050815250509050600160009054906101000a900473ffffffffffffffffffffffffffffffffffffffff1673ffffffffffffffffffffffffffffffffffffffff166323b872dd308360c0015184604001516040518463ffffffff1660e01b81526004016125b793929190614b2d565b600060405180830381600087803b1580156125d157600080fd5b505af11580156125e5573d6000803e3d6000fd5b505050505050565b600b5481565b600d5481565b612601614051565b73ffffffffffffffffffffffffffffffffffffffff1661261f612b37565b73ffffffffffffffffffffffffffffffffffffffff1614612675576040517f08c379a000000000000000000000000000000000000000000000000000000000815260040161266c90614d8f565b60405180910390fd5b61267f6000614059565b565b6000600480549050905090565b60085481565b600e60009054906101000a900460ff166126e3576040517f08c379a00000000000000000000000000000000000000000000000000000000081526004016126da90614d0f565b60405180910390fd5b6127108210612727576040517f08c379a000000000000000000000000000000000000000000000000000000000815260040161271e90614d2f565b60405180910390fd5b600160009054906101000a900473ffffffffffffffffffffffffffffffffffffffff1673ffffffffffffffffffffffffffffffffffffffff16636352211e836040518263ffffffff1660e01b81526004016127829190614eb5565b60206040518083038186803b15801561279a57600080fd5b505afa1580156127ae573d6000803e3d6000fd5b505050506040513d601f19601f820116820180604052508101906127d29190614302565b73ffffffffffffffffffffffffffffffffffffffff163373ffffffffffffffffffffffffffffffffffffffff161461283f576040517f08c379a000000000000000000000000000000000000000000000000000000000815260040161283690614c6f565b60405180910390fd5b6000600380549050905060006040518061010001604052806001151581526020018381526020018581526020018481526020016004805490508152602001600560003373ffffffffffffffffffffffffffffffffffffffff1673ffffffffffffffffffffffffffffffffffffffff1681526020019081526020016000208054905081526020013373ffffffffffffffffffffffffffffffffffffffff168152602001604051806020016040528060008152508152509050600381908060018154018082558091505060019003906000526020600020906008020160009091909190915060008201518160000160006101000a81548160ff0219169083151502179055506020820151816001015560408201518160020155606082015181600301556080820151816004015560a0820151816005015560c08201518160060160006101000a81548173ffffffffffffffffffffffffffffffffffffffff021916908373ffffffffffffffffffffffffffffffffffffffff16021790555060e08201518160070190805190602001906129d792919061411d565b505050600560003373ffffffffffffffffffffffffffffffffffffffff1673ffffffffffffffffffffffffffffffffffffffff16815260200190815260200160002082908060018154018082558091505060019003906000526020600020016000909190919091505560048290806001815401808255809150506001900390600052602060002001600090919091909150557ff8566eba27fcd34d4f5b8869ac3ea00164e8ad36697569f3671db38361d1cdb081604051612a989190614e4f565b60405180910390a1600160009054906101000a900473ffffffffffffffffffffffffffffffffffffffff1673ffffffffffffffffffffffffffffffffffffffff166323b872dd3330876040518463ffffffff1660e01b8152600401612aff93929190614b2d565b600060405180830381600087803b158015612b1957600080fd5b505af1158015612b2d573d6000803e3d6000fd5b5050505050505050565b60008060009054906101000a900473ffffffffffffffffffffffffffffffffffffffff16905090565b60095481565b600e60019054906101000a900460ff1681565b60056020528160005260406000208181548110612b9557600080fd5b90600052602060002001600091509150505481565b600560003373ffffffffffffffffffffffffffffffffffffffff1673ffffffffffffffffffffffffffffffffffffffff168152602001908152602001600020805490508183612bf99190614fca565b1115612c3a576040517f08c379a0000000000000000000000000000000000000000000000000000000008152600401612c3190614dcf565b60405180910390fd5b60008060075490506000600560003373ffffffffffffffffffffffffffffffffffffffff1673ffffffffffffffffffffffffffffffffffffffff168152602001908152602001600020805480602002602001604051908101604052809291908181526020018280548015612ccd57602002820191906000526020600020905b815481526020019060010190808311612cb9575b5050505050905060005b8151811015612deb5760006003838381518110612d1d577f4e487b7100000000000000000000000000000000000000000000000000000000600052603260045260246000fd5b602002602001015181548110612d5c577f4e487b7100000000000000000000000000000000000000000000000000000000600052603260045260246000fd5b9060005260206000209060080201600201549050612710811015612dd75760006006600083815260200190815260200160002054600d54612d9d91906150ab565b90508086612dab9190614fca565b95508085612db991906150ab565b9450600d546006600084815260200190815260200160002081905550505b508080612de390615242565b915050612cd7565b50816007819055503373ffffffffffffffffffffffffffffffffffffffff166108fc849081150290604051600060405180830381858888f19350505050158015612e39573d6000803e3d6000fd5b505050505050565b612e49614051565b73ffffffffffffffffffffffffffffffffffffffff16612e67612b37565b73ffffffffffffffffffffffffffffffffffffffff1614612ebd576040517f08c379a0000000000000000000000000000000000000000000000000000000008152600401612eb490614d8f565b60405180910390fd5b6064821115612f01576040517f08c379a0000000000000000000000000000000000000000000000000000000008152600401612ef890614cef565b60405180910390fd5b6064811115612f45576040517f08c379a0000000000000000000000000000000000000000000000000000000008152600401612f3c90614cef565b60405180910390fd5b81600881905550806009819055505050565b60606000600560003373ffffffffffffffffffffffffffffffffffffffff1673ffffffffffffffffffffffffffffffffffffffff168152602001908152602001600020805490509050808385612fad9190614fca565b1115612fc2578381612fbf91906150ab565b92505b60008367ffffffffffffffff811115613004577f4e487b7100000000000000000000000000000000000000000000000000000000600052604160045260246000fd5b60405190808252806020026020018201604052801561303d57816020015b61302a6141a3565b8152602001906001900390816130225790505b50905060005b848110156133795760006003600560003373ffffffffffffffffffffffffffffffffffffffff1673ffffffffffffffffffffffffffffffffffffffff168152602001908152602001600020888461309a9190614fca565b815481106130d1577f4e487b7100000000000000000000000000000000000000000000000000000000600052603260045260246000fd5b906000526020600020015481548110613113577f4e487b7100000000000000000000000000000000000000000000000000000000600052603260045260246000fd5b9060005260206000209060080201604051806101000160405290816000820160009054906101000a900460ff1615151515815260200160018201548152602001600282015481526020016003820154815260200160048201548152602001600582015481526020016006820160009054906101000a900473ffffffffffffffffffffffffffffffffffffffff1673ffffffffffffffffffffffffffffffffffffffff1673ffffffffffffffffffffffffffffffffffffffff1681526020016007820180546131e090615191565b80601f016020809104026020016040519081016040528092919081815260200182805461320c90615191565b80156132595780601f1061322e57610100808354040283529160200191613259565b820191906000526020600020905b81548152906001019060200180831161323c57829003601f168201915b5050505050815250509050600160009054906101000a900473ffffffffffffffffffffffffffffffffffffffff1673ffffffffffffffffffffffffffffffffffffffff1663c87b56dd82604001516040518263ffffffff1660e01b81526004016132c39190614eb5565b60006040518083038186803b1580156132db57600080fd5b505afa1580156132ef573d6000803e3d6000fd5b505050506040513d6000823e3d601f19601f8201168201806040525081019061331891906143a3565b8160e001819052508083838151811061335a577f4e487b7100000000000000000000000000000000000000000000000000000000600052603260045260246000fd5b602002602001018190525050808061337190615242565b915050613043565b50809250505092915050565b60606000600480549050905080838561339e9190614fca565b11156133b35783816133b091906150ab565b92505b60008367ffffffffffffffff8111156133f5577f4e487b7100000000000000000000000000000000000000000000000000000000600052604160045260246000fd5b60405190808252806020026020018201604052801561342e57816020015b61341b6141a3565b8152602001906001900390816134135790505b50905060005b8481101561372d57600060036004838961344e9190614fca565b81548110613485577f4e487b7100000000000000000000000000000000000000000000000000000000600052603260045260246000fd5b9060005260206000200154815481106134c7577f4e487b7100000000000000000000000000000000000000000000000000000000600052603260045260246000fd5b9060005260206000209060080201604051806101000160405290816000820160009054906101000a900460ff1615151515815260200160018201548152602001600282015481526020016003820154815260200160048201548152602001600582015481526020016006820160009054906101000a900473ffffffffffffffffffffffffffffffffffffffff1673ffffffffffffffffffffffffffffffffffffffff1673ffffffffffffffffffffffffffffffffffffffff16815260200160078201805461359490615191565b80601f01602080910402602001604051908101604052809291908181526020018280546135c090615191565b801561360d5780601f106135e25761010080835404028352916020019161360d565b820191906000526020600020905b8154815290600101906020018083116135f057829003601f168201915b5050505050815250509050600160009054906101000a900473ffffffffffffffffffffffffffffffffffffffff1673ffffffffffffffffffffffffffffffffffffffff1663c87b56dd82604001516040518263ffffffff1660e01b81526004016136779190614eb5565b60006040518083038186803b15801561368f57600080fd5b505afa1580156136a3573d6000803e3d6000fd5b505050506040513d6000823e3d601f19601f820116820180604052508101906136cc91906143a3565b8160e001819052508083838151811061370e577f4e487b7100000000000000000000000000000000000000000000000000000000600052603260045260246000fd5b602002602001018190525050808061372590615242565b915050613434565b50809250505092915050565b613741614051565b73ffffffffffffffffffffffffffffffffffffffff1661375f612b37565b73ffffffffffffffffffffffffffffffffffffffff16146137b5576040517f08c379a00000000000000000000000000000000000000000000000000000000081526004016137ac90614d8f565b60405180910390fd5b6000600e60006101000a81548160ff021916908315150217905550565b6000600380549050905090565b600e60009054906101000a900460ff1681565b6137fa614051565b73ffffffffffffffffffffffffffffffffffffffff16613818612b37565b73ffffffffffffffffffffffffffffffffffffffff161461386e576040517f08c379a000000000000000000000000000000000000000000000000000000000815260040161386590614d8f565b60405180910390fd5b613876614051565b73ffffffffffffffffffffffffffffffffffffffff166108fc479081150290604051600060405180830381858888f193505050501580156138bb573d6000803e3d6000fd5b50565b600381815481106138ce57600080fd5b90600052602060002090600802016000915090508060000160009054906101000a900460ff16908060010154908060020154908060030154908060040154908060050154908060060160009054906101000a900473ffffffffffffffffffffffffffffffffffffffff169080600701805461394890615191565b80601f016020809104026020016040519081016040528092919081815260200182805461397490615191565b80156139c15780601f10613996576101008083540402835291602001916139c1565b820191906000526020600020905b8154815290600101906020018083116139a457829003601f168201915b5050505050905088565b600060075447116139df57600090506139f0565b600754476139ed91906150ab565b90505b90565b6139fb614051565b73ffffffffffffffffffffffffffffffffffffffff16613a19612b37565b73ffffffffffffffffffffffffffffffffffffffff1614613a6f576040517f08c379a0000000000000000000000000000000000000000000000000000000008152600401613a6690614d8f565b60405180910390fd5b600073ffffffffffffffffffffffffffffffffffffffff168173ffffffffffffffffffffffffffffffffffffffff161415613adf576040517f08c379a0000000000000000000000000000000000000000000000000000000008152600401613ad690614c8f565b60405180910390fd5b613ae881614059565b50565b60066020528060005260406000206000915090505481565b6000600480549050905060008111613b50576040517f08c379a0000000000000000000000000000000000000000000000000000000008152600401613b4790614e0f565b60405180910390fd5b808210613b92576040517f08c379a0000000000000000000000000000000000000000000000000000000008152600401613b8990614def565b60405180910390fd5b6004600182613ba191906150ab565b81548110613bd8577f4e487b7100000000000000000000000000000000000000000000000000000000600052603260045260246000fd5b906000526020600020015460048381548110613c1d577f4e487b7100000000000000000000000000000000000000000000000000000000600052603260045260246000fd5b906000526020600020018190555081600360048481548110613c68577f4e487b7100000000000000000000000000000000000000000000000000000000600052603260045260246000fd5b906000526020600020015481548110613caa577f4e487b7100000000000000000000000000000000000000000000000000000000600052603260045260246000fd5b9060005260206000209060080201600401819055506004805480613cf7577f4e487b7100000000000000000000000000000000000000000000000000000000600052603160045260246000fd5b600190038181906000526020600020016000905590555050565b6000600560008473ffffffffffffffffffffffffffffffffffffffff1673ffffffffffffffffffffffffffffffffffffffff16815260200190815260200160002080549050905060008111613d9b576040517f08c379a0000000000000000000000000000000000000000000000000000000008152600401613d9290614e2f565b60405180910390fd5b808210613ddd576040517f08c379a0000000000000000000000000000000000000000000000000000000008152600401613dd490614def565b60405180910390fd5b600560008473ffffffffffffffffffffffffffffffffffffffff1673ffffffffffffffffffffffffffffffffffffffff168152602001908152602001600020600182613e2991906150ab565b81548110613e60577f4e487b7100000000000000000000000000000000000000000000000000000000600052603260045260246000fd5b9060005260206000200154600560008573ffffffffffffffffffffffffffffffffffffffff1673ffffffffffffffffffffffffffffffffffffffff1681526020019081526020016000208381548110613ee2577f4e487b7100000000000000000000000000000000000000000000000000000000600052603260045260246000fd5b9060005260206000200181905550816003600560008673ffffffffffffffffffffffffffffffffffffffff1673ffffffffffffffffffffffffffffffffffffffff1681526020019081526020016000208481548110613f6a577f4e487b7100000000000000000000000000000000000000000000000000000000600052603260045260246000fd5b906000526020600020015481548110613fac577f4e487b7100000000000000000000000000000000000000000000000000000000600052603260045260246000fd5b906000526020600020906008020160050181905550600560008473ffffffffffffffffffffffffffffffffffffffff1673ffffffffffffffffffffffffffffffffffffffff168152602001908152602001600020805480614036577f4e487b7100000000000000000000000000000000000000000000000000000000600052603160045260246000fd5b60019003818190600052602060002001600090559055505050565b600033905090565b60008060009054906101000a900473ffffffffffffffffffffffffffffffffffffffff169050816000806101000a81548173ffffffffffffffffffffffffffffffffffffffff021916908373ffffffffffffffffffffffffffffffffffffffff1602179055508173ffffffffffffffffffffffffffffffffffffffff168173ffffffffffffffffffffffffffffffffffffffff167f8be0079c531659141344cd1fd0a4f28419497f9722a3daafe3b4186f6b6457e060405160405180910390a35050565b82805461412990615191565b90600052602060002090601f01602090048101928261414b5760008555614192565b82601f1061416457805160ff1916838001178555614192565b82800160010185558215614192579182015b82811115614191578251825591602001919060010190614176565b5b50905061419f9190614200565b5090565b6040518061010001604052806000151581526020016000815260200160008152602001600081526020016000815260200160008152602001600073ffffffffffffffffffffffffffffffffffffffff168152602001606081525090565b5b80821115614219576000816000905550600101614201565b5090565b600061423061422b84614f1e565b614ef9565b90508281526020810184848401111561424857600080fd5b61425384828561515e565b509392505050565b60008135905061426a8161568d565b92915050565b60008151905061427f8161568d565b92915050565b600082601f83011261429657600080fd5b81516142a684826020860161421d565b91505092915050565b6000813590506142be816156a4565b92915050565b6000815190506142d3816156a4565b92915050565b6000602082840312156142eb57600080fd5b60006142f98482850161425b565b91505092915050565b60006020828403121561431457600080fd5b600061432284828501614270565b91505092915050565b6000806040838503121561433e57600080fd5b600061434c8582860161425b565b925050602061435d858286016142af565b9150509250929050565b6000806040838503121561437a57600080fd5b600061438885828601614270565b9250506020614399858286016142c4565b9150509250929050565b6000602082840312156143b557600080fd5b600082015167ffffffffffffffff8111156143cf57600080fd5b6143db84828501614285565b91505092915050565b6000602082840312156143f657600080fd5b6000614404848285016142af565b91505092915050565b60006020828403121561441f57600080fd5b600061442d848285016142c4565b91505092915050565b6000806040838503121561444957600080fd5b6000614457858286016142af565b9250506020614468858286016142af565b9150509250929050565b600061447e8383614859565b905092915050565b61448f81615116565b82525050565b61449e81615116565b82525050565b60006144af82614f74565b6144b98185614f97565b9350836020820285016144cb85614f4f565b8060005b8581101561450757848403895281516144e88582614472565b94506144f383614f8a565b925060208a019950506001810190506144cf565b50829750879550505050505092915050565b61452281615128565b82525050565b61453181615128565b82525050565b600061454282614f7f565b61454c8185614fa8565b935061455c81856020860161515e565b61456581615347565b840191505092915050565b600061457b82614f7f565b6145858185614fb9565b935061459581856020860161515e565b61459e81615347565b840191505092915050565b600081546145b681615191565b6145c08186614fa8565b945060018216600081146145db57600181146145ed57614620565b60ff1983168652602086019350614620565b6145f685614f5f565b60005b83811015614618578154818901526001820191506020810190506145f9565b808801955050505b50505092915050565b6000614636600d83614fb9565b915061464182615365565b602082019050919050565b6000614659600d83614fb9565b91506146648261538e565b602082019050919050565b600061467c602683614fb9565b9150614687826153b7565b604082019050919050565b600061469f601c83614fb9565b91506146aa82615406565b602082019050919050565b60006146c2601283614fb9565b91506146cd8261542f565b602082019050919050565b60006146e5602583614fb9565b91506146f082615458565b604082019050919050565b6000614708601183614fb9565b9150614713826154a7565b602082019050919050565b600061472b603183614fb9565b9150614736826154d0565b604082019050919050565b600061474e601283614fb9565b91506147598261551f565b602082019050919050565b6000614771600f83614fb9565b915061477c82615548565b602082019050919050565b6000614794602083614fb9565b915061479f82615571565b602082019050919050565b60006147b7601883614fb9565b91506147c28261559a565b602082019050919050565b60006147da600c83614fb9565b91506147e5826155c3565b602082019050919050565b60006147fd600f83614fb9565b9150614808826155ec565b602082019050919050565b6000614820601c83614fb9565b915061482b82615615565b602082019050919050565b6000614843602b83614fb9565b915061484e8261563e565b604082019050919050565b6000610100830160008301516148726000860182614519565b5060208301516148856020860182614af4565b5060408301516148986040860182614af4565b5060608301516148ab6060860182614af4565b5060808301516148be6080860182614af4565b5060a08301516148d160a0860182614af4565b5060c08301516148e460c0860182614486565b5060e083015184820360e08601526148fc8282614537565b9150508091505092915050565b6000610100830160008301516149226000860182614519565b5060208301516149356020860182614af4565b5060408301516149486040860182614af4565b50606083015161495b6060860182614af4565b50608083015161496e6080860182614af4565b5060a083015161498160a0860182614af4565b5060c083015161499460c0860182614486565b5060e083015184820360e08601526149ac8282614537565b9150508091505092915050565b6000610100830160008084015490506149d1816151dd565b6149de6000870182614519565b50600184015490506149ef816151f7565b6149fc6020870182614af4565b5060028401549050614a0d816151f7565b614a1a6040870182614af4565b5060038401549050614a2b816151f7565b614a386060870182614af4565b5060048401549050614a49816151f7565b614a566080870182614af4565b5060058401549050614a67816151f7565b614a7460a0870182614af4565b5060068401549050614a85816151c3565b614a9260c0870182614486565b506007840185830360e0870152614aa983826145a9565b925050819250505092915050565b60006040830160008301518482036000860152614ad48282614859565b9150506020830151614ae96020860182614486565b508091505092915050565b614afd81615154565b82525050565b614b0c81615154565b82525050565b6000602082019050614b276000830184614495565b92915050565b6000606082019050614b426000830186614495565b614b4f6020830185614495565b614b5c6040830184614b03565b949350505050565b6000604082019050614b796000830185614495565b614b866020830184614b03565b9392505050565b60006020820190508181036000830152614ba781846144a4565b905092915050565b6000602082019050614bc46000830184614528565b92915050565b600061010082019050614be0600083018b614528565b614bed602083018a614b03565b614bfa6040830189614b03565b614c076060830188614b03565b614c146080830187614b03565b614c2160a0830186614b03565b614c2e60c0830185614495565b81810360e0830152614c408184614570565b90509998505050505050505050565b60006020820190508181036000830152614c6881614629565b9050919050565b60006020820190508181036000830152614c888161464c565b9050919050565b60006020820190508181036000830152614ca88161466f565b9050919050565b60006020820190508181036000830152614cc881614692565b9050919050565b60006020820190508181036000830152614ce8816146b5565b9050919050565b60006020820190508181036000830152614d08816146d8565b9050919050565b60006020820190508181036000830152614d28816146fb565b9050919050565b60006020820190508181036000830152614d488161471e565b9050919050565b60006020820190508181036000830152614d6881614741565b9050919050565b60006020820190508181036000830152614d8881614764565b9050919050565b60006020820190508181036000830152614da881614787565b9050919050565b60006020820190508181036000830152614dc8816147aa565b9050919050565b60006020820190508181036000830152614de8816147cd565b9050919050565b60006020820190508181036000830152614e08816147f0565b9050919050565b60006020820190508181036000830152614e2881614813565b9050919050565b60006020820190508181036000830152614e4881614836565b9050919050565b60006020820190508181036000830152614e698184614909565b905092915050565b60006020820190508181036000830152614e8b81846149b9565b905092915050565b60006020820190508181036000830152614ead8184614ab7565b905092915050565b6000602082019050614eca6000830184614b03565b92915050565b6000604082019050614ee56000830185614b03565b614ef26020830184614b03565b9392505050565b6000614f03614f14565b9050614f0f8282615211565b919050565b6000604051905090565b600067ffffffffffffffff821115614f3957614f38615318565b5b614f4282615347565b9050602081019050919050565b6000819050602082019050919050565b60008190508160005260206000209050919050565b600081519050919050565b600081519050919050565b6000602082019050919050565b600082825260208201905092915050565b600082825260208201905092915050565b600082825260208201905092915050565b6000614fd582615154565b9150614fe083615154565b9250827fffffffffffffffffffffffffffffffffffffffffffffffffffffffffffffffff038211156150155761501461528b565b5b828201905092915050565b600061502b82615154565b915061503683615154565b925082615046576150456152ba565b5b828204905092915050565b600061505c82615154565b915061506783615154565b9250817fffffffffffffffffffffffffffffffffffffffffffffffffffffffffffffffff04831182151516156150a05761509f61528b565b5b828202905092915050565b60006150b682615154565b91506150c183615154565b9250828210156150d4576150d361528b565b5b828203905092915050565b600073ffffffffffffffffffffffffffffffffffffffff82169050919050565b600060ff82169050919050565b6000819050919050565b600061512182615134565b9050919050565b60008115159050919050565b600073ffffffffffffffffffffffffffffffffffffffff82169050919050565b6000819050919050565b60005b8381101561517c578082015181840152602081019050615161565b8381111561518b576000848401525b50505050565b600060028204905060018216806151a957607f821691505b602082108114156151bd576151bc6152e9565b5b50919050565b60006151d66151d183615358565b6150df565b9050919050565b60006151f06151eb83615358565b6150ff565b9050919050565b600061520a61520583615358565b61510c565b9050919050565b61521a82615347565b810181811067ffffffffffffffff8211171561523957615238615318565b5b80604052505050565b600061524d82615154565b91507fffffffffffffffffffffffffffffffffffffffffffffffffffffffffffffffff8214156152805761527f61528b565b5b600182019050919050565b7f4e487b7100000000000000000000000000000000000000000000000000000000600052601160045260246000fd5b7f4e487b7100000000000000000000000000000000000000000000000000000000600052601260045260246000fd5b7f4e487b7100000000000000000000000000000000000000000000000000000000600052602260045260246000fd5b7f4e487b7100000000000000000000000000000000000000000000000000000000600052604160045260246000fd5b6000601f19601f8301169050919050565b60008160001c9050919050565b7f496e76616c6964204f776e657200000000000000000000000000000000000000600082015250565b7f496e76616c6964206f776e657200000000000000000000000000000000000000600082015250565b7f4f776e61626c653a206e6577206f776e657220697320746865207a65726f206160008201527f6464726573730000000000000000000000000000000000000000000000000000602082015250565b7f4f776e65722063616e6e6f7420627579206f776e206c697374696e6700000000600082015250565b7f4f6e6c7920696e20656d657267656e63792e0000000000000000000000000000600082015250565b7f4769766520612070657263656e746167652076616c75652066726f6d2030207460008201527f6f20313030000000000000000000000000000000000000000000000000000000602082015250565b7f4d61726b657420697320636c6f7365642e000000000000000000000000000000600082015250565b7f486f6e6f72617279204150417320617265206e6f74206163636570746564206960008201527f6e20746865206d61726b6574706c616365000000000000000000000000000000602082015250565b7f56616c756520496e73756666696369656e740000000000000000000000000000600082015250565b7f496e76616c6964204c697374696e670000000000000000000000000000000000600082015250565b7f4f776e61626c653a2063616c6c6572206973206e6f7420746865206f776e6572600082015250565b7f4c697374696e67206e6f206c6f6e676572206163746976650000000000000000600082015250565b7f4f7574206f6620696e6465780000000000000000000000000000000000000000600082015250565b7f496e636f727265637420696e6465780000000000000000000000000000000000600082015250565b7f546865726520617265206e6f20616374697665206c697374696e677300000000600082015250565b7f546865726520617265206e6f20616374697665206c697374696e677320666f7260008201527f207468697320757365722e000000000000000000000000000000000000000000602082015250565b61569681615116565b81146156a157600080fd5b50565b6156ad81615154565b81146156b857600080fd5b5056fea26469706673582212208e0c1fc6478791f991462e380b2652d433bf324c1bf60eea8aaf8eea17d8770564736f6c63430008040033",
  "linkReferences": {},
  "deployedLinkReferences": {}
}